{
  "_format": "hh-sol-artifact-1",
  "contractName": "CoffeeWars",
  "sourceName": "contracts/NFT.sol",
  "abi": [
    {
      "inputs": [],
      "stateMutability": "nonpayable",
      "type": "constructor"
    },
    {
      "anonymous": false,
      "inputs": [
        {
          "indexed": true,
          "internalType": "address",
          "name": "owner",
          "type": "address"
        },
        {
          "indexed": true,
          "internalType": "address",
          "name": "approved",
          "type": "address"
        },
        {
          "indexed": true,
          "internalType": "uint256",
          "name": "tokenId",
          "type": "uint256"
        }
      ],
      "name": "Approval",
      "type": "event"
    },
    {
      "anonymous": false,
      "inputs": [
        {
          "indexed": true,
          "internalType": "address",
          "name": "owner",
          "type": "address"
        },
        {
          "indexed": true,
          "internalType": "address",
          "name": "operator",
          "type": "address"
        },
        {
          "indexed": false,
          "internalType": "bool",
          "name": "approved",
          "type": "bool"
        }
      ],
      "name": "ApprovalForAll",
      "type": "event"
    },
    {
      "anonymous": false,
      "inputs": [
        {
          "indexed": true,
          "internalType": "address",
          "name": "from",
          "type": "address"
        },
        {
          "indexed": true,
          "internalType": "address",
          "name": "to",
          "type": "address"
        },
        {
          "indexed": true,
          "internalType": "uint256",
          "name": "tokenId",
          "type": "uint256"
        }
      ],
      "name": "Transfer",
      "type": "event"
    },
    {
      "inputs": [],
      "name": "_sendEther",
      "outputs": [],
      "stateMutability": "payable",
      "type": "function"
    },
    {
      "inputs": [
        {
          "internalType": "address",
          "name": "to",
          "type": "address"
        },
        {
          "internalType": "uint256",
          "name": "tokenId",
          "type": "uint256"
        }
      ],
      "name": "approve",
      "outputs": [],
      "stateMutability": "nonpayable",
      "type": "function"
    },
    {
      "inputs": [
        {
          "internalType": "address",
          "name": "owner",
          "type": "address"
        }
      ],
      "name": "balanceOf",
      "outputs": [
        {
          "internalType": "uint256",
          "name": "",
          "type": "uint256"
        }
      ],
      "stateMutability": "view",
      "type": "function"
    },
    {
      "inputs": [
        {
          "internalType": "string[]",
          "name": "metadataGroup",
          "type": "string[]"
        }
      ],
      "name": "doubleMint",
      "outputs": [],
      "stateMutability": "payable",
      "type": "function"
    },
    {
      "inputs": [
        {
          "internalType": "uint256",
          "name": "tokenId",
          "type": "uint256"
        }
      ],
      "name": "getApproved",
      "outputs": [
        {
          "internalType": "address",
          "name": "",
          "type": "address"
        }
      ],
      "stateMutability": "view",
      "type": "function"
    },
    {
      "inputs": [],
      "name": "getTime",
      "outputs": [
        {
          "internalType": "uint256",
          "name": "",
          "type": "uint256"
        }
      ],
      "stateMutability": "view",
      "type": "function"
    },
    {
      "inputs": [
        {
          "internalType": "address",
          "name": "owner",
          "type": "address"
        },
        {
          "internalType": "address",
          "name": "operator",
          "type": "address"
        }
      ],
      "name": "isApprovedForAll",
      "outputs": [
        {
          "internalType": "bool",
          "name": "",
          "type": "bool"
        }
      ],
      "stateMutability": "view",
      "type": "function"
    },
    {
      "inputs": [
        {
          "internalType": "string",
          "name": "_uri",
          "type": "string"
        }
      ],
      "name": "mint",
      "outputs": [],
      "stateMutability": "payable",
      "type": "function"
    },
    {
      "inputs": [],
      "name": "name",
      "outputs": [
        {
          "internalType": "string",
          "name": "",
          "type": "string"
        }
      ],
      "stateMutability": "view",
      "type": "function"
    },
    {
      "inputs": [
        {
          "internalType": "uint256",
          "name": "tokenId",
          "type": "uint256"
        }
      ],
      "name": "ownerOf",
      "outputs": [
        {
          "internalType": "address",
          "name": "",
          "type": "address"
        }
      ],
      "stateMutability": "view",
      "type": "function"
    },
    {
      "inputs": [
        {
          "internalType": "address",
          "name": "from",
          "type": "address"
        },
        {
          "internalType": "address",
          "name": "to",
          "type": "address"
        },
        {
          "internalType": "uint256",
          "name": "tokenId",
          "type": "uint256"
        }
      ],
      "name": "safeTransferFrom",
      "outputs": [],
      "stateMutability": "nonpayable",
      "type": "function"
    },
    {
      "inputs": [
        {
          "internalType": "address",
          "name": "from",
          "type": "address"
        },
        {
          "internalType": "address",
          "name": "to",
          "type": "address"
        },
        {
          "internalType": "uint256",
          "name": "tokenId",
          "type": "uint256"
        },
        {
          "internalType": "bytes",
          "name": "data",
          "type": "bytes"
        }
      ],
      "name": "safeTransferFrom",
      "outputs": [],
      "stateMutability": "nonpayable",
      "type": "function"
    },
    {
      "inputs": [
        {
          "internalType": "address",
          "name": "operator",
          "type": "address"
        },
        {
          "internalType": "bool",
          "name": "approved",
          "type": "bool"
        }
      ],
      "name": "setApprovalForAll",
      "outputs": [],
      "stateMutability": "nonpayable",
      "type": "function"
    },
    {
      "inputs": [
        {
          "internalType": "bytes4",
          "name": "interfaceId",
          "type": "bytes4"
        }
      ],
      "name": "supportsInterface",
      "outputs": [
        {
          "internalType": "bool",
          "name": "",
          "type": "bool"
        }
      ],
      "stateMutability": "view",
      "type": "function"
    },
    {
      "inputs": [],
      "name": "symbol",
      "outputs": [
        {
          "internalType": "string",
          "name": "",
          "type": "string"
        }
      ],
      "stateMutability": "view",
      "type": "function"
    },
    {
      "inputs": [
        {
          "internalType": "uint256",
          "name": "index",
          "type": "uint256"
        }
      ],
      "name": "tokenByIndex",
      "outputs": [
        {
          "internalType": "uint256",
          "name": "",
          "type": "uint256"
        }
      ],
      "stateMutability": "view",
      "type": "function"
    },
    {
      "inputs": [
        {
          "internalType": "address",
          "name": "owner",
          "type": "address"
        },
        {
          "internalType": "uint256",
          "name": "index",
          "type": "uint256"
        }
      ],
      "name": "tokenOfOwnerByIndex",
      "outputs": [
        {
          "internalType": "uint256",
          "name": "",
          "type": "uint256"
        }
      ],
      "stateMutability": "view",
      "type": "function"
    },
    {
      "inputs": [
        {
          "internalType": "uint256",
          "name": "tokenId",
          "type": "uint256"
        }
      ],
      "name": "tokenURI",
      "outputs": [
        {
          "internalType": "string",
          "name": "",
          "type": "string"
        }
      ],
      "stateMutability": "view",
      "type": "function"
    },
    {
      "inputs": [],
      "name": "totalSupply",
      "outputs": [
        {
          "internalType": "uint256",
          "name": "",
          "type": "uint256"
        }
      ],
      "stateMutability": "view",
      "type": "function"
    },
    {
      "inputs": [
        {
          "internalType": "address",
          "name": "from",
          "type": "address"
        },
        {
          "internalType": "address",
          "name": "to",
          "type": "address"
        },
        {
          "internalType": "uint256",
          "name": "tokenId",
          "type": "uint256"
        }
      ],
      "name": "transferFrom",
      "outputs": [],
      "stateMutability": "nonpayable",
      "type": "function"
    }
  ],
  "bytecode": "0x73f74a589d778f6d1166dca66d0b17263403227e556080819052603b60a0819052600b80546001600160a01b03199081168417909155600c9190915573653229a1c558b87cba440bb82d296bd1e572c23d60c0819052600a60e0819052600d80548416909217909155600e81905573fe78bf9d611c6aab734a69810e79e8220278c897610100819052610120829052600f80548416909117905560105573ffe7afe2b1fa96045e91e566a903a230cbb99f706101408190526005610160819052601180548416909217909155601255731b86c2909c765ec3be7ad953e3bd6f3c748ee07b61018081905260026101a081905260138054841690921790915560148190556101c08390526101e081905260158054831684179055601681905561020083905261022081905260178054831684179055601881905561024083905261026081905260198054831684179055601a8190556102808390526102a0819052601b8054831684179055601c8190556102c08390526102e0819052601d8054831684179055601e819055610300839052610320819052601f805483168417905560208190556103408390526103608190526021805483168417905560228190556103808390526103a08190526023805483168417905560248190556103c08390526103e08190526025805483168417905560268190556104406040526104008390526104208190526027805490921690921790556028553480156200022357600080fd5b50604080518082018252600a815269436f666665655761727360b01b602080830191825283518085019094526002845261435760f01b90840152815191929162000270916000916200028f565b508051620002869060019060208401906200028f565b50505062000372565b8280546200029d9062000335565b90600052602060002090601f016020900481019282620002c157600085556200030c565b82601f10620002dc57805160ff19168380011785556200030c565b828001600101855582156200030c579182015b828111156200030c578251825591602001919060010190620002ef565b506200031a9291506200031e565b5090565b5b808211156200031a57600081556001016200031f565b600181811c908216806200034a57607f821691505b602082108114156200036c57634e487b7160e01b600052602260045260246000fd5b50919050565b61262b80620003826000396000f3fe60806040526004361061015f5760003560e01c8063557ed1ba116100c0578063b88d4fde11610074578063c87b56dd11610059578063c87b56dd14610377578063d85d3d2714610397578063e985e9c5146103aa57600080fd5b8063b88d4fde1461034f578063bc069b921461036f57600080fd5b806370a08231116100a557806370a08231146102fa57806395d89b411461031a578063a22cb4651461032f57600080fd5b8063557ed1ba146102c75780636352211e146102da57600080fd5b806323b872dd116101175780634059df13116100fc5780634059df131461027457806342842e0e146102875780634f6ccce7146102a757600080fd5b806323b872dd146102345780632f745c591461025457600080fd5b8063081812fc11610148578063081812fc146101bb578063095ea7b3146101f357806318160ddd1461021557600080fd5b806301ffc9a71461016457806306fdde0314610199575b600080fd5b34801561017057600080fd5b5061018461017f36600461201f565b6103f3565b60405190151581526020015b60405180910390f35b3480156101a557600080fd5b506101ae610404565b6040516101909190612094565b3480156101c757600080fd5b506101db6101d63660046120a7565b610496565b6040516001600160a01b039091168152602001610190565b3480156101ff57600080fd5b5061021361020e3660046120d7565b6104bd565b005b34801561022157600080fd5b506008545b604051908152602001610190565b34801561024057600080fd5b5061021361024f366004612101565b6105f4565b34801561026057600080fd5b5061022661026f3660046120d7565b61067b565b6102136102823660046121fc565b610723565b34801561029357600080fd5b506102136102a2366004612101565b610788565b3480156102b357600080fd5b506102266102c23660046120a7565b6107a3565b3480156102d357600080fd5b5042610226565b3480156102e657600080fd5b506101db6102f53660046120a7565b610847565b34801561030657600080fd5b506102266103153660046122bf565b6108ac565b34801561032657600080fd5b506101ae610946565b34801561033b57600080fd5b5061021361034a3660046122da565b610955565b34801561035b57600080fd5b5061021361036a366004612316565b610964565b6102136109f2565b34801561038357600080fd5b506101ae6103923660046120a7565b6110ad565b6102136103a5366004612392565b6110e8565b3480156103b657600080fd5b506101846103c53660046123c7565b6001600160a01b03918216600090815260056020908152604080832093909416825291909152205460ff1690565b60006103fe82611111565b92915050565b606060008054610413906123fa565b80601f016020809104026020016040519081016040528092919081815260200182805461043f906123fa565b801561048c5780601f106104615761010080835404028352916020019161048c565b820191906000526020600020905b81548152906001019060200180831161046f57829003601f168201915b5050505050905090565b60006104a18261114f565b506000908152600460205260409020546001600160a01b031690565b60006104c882610847565b9050806001600160a01b0316836001600160a01b031614156105575760405162461bcd60e51b815260206004820152602160248201527f4552433732313a20617070726f76616c20746f2063757272656e74206f776e6560448201527f720000000000000000000000000000000000000000000000000000000000000060648201526084015b60405180910390fd5b336001600160a01b0382161480610573575061057381336103c5565b6105e55760405162461bcd60e51b815260206004820152603e60248201527f4552433732313a20617070726f76652063616c6c6572206973206e6f7420746f60448201527f6b656e206f776e6572206e6f7220617070726f76656420666f7220616c6c0000606482015260840161054e565b6105ef83836111b3565b505050565b6105fe338261122e565b6106705760405162461bcd60e51b815260206004820152602e60248201527f4552433732313a2063616c6c6572206973206e6f7420746f6b656e206f776e6560448201527f72206e6f7220617070726f766564000000000000000000000000000000000000606482015260840161054e565b6105ef8383836112ad565b6000610686836108ac565b82106106fa5760405162461bcd60e51b815260206004820152602b60248201527f455243373231456e756d657261626c653a206f776e657220696e646578206f7560448201527f74206f6620626f756e6473000000000000000000000000000000000000000000606482015260840161054e565b506001600160a01b03919091166000908152600660209081526040808320938352929052205490565b60005b815181101561077c57600061073a60085490565b90506107463382611492565b6107698184848151811061075c5761075c612435565b60200260200101516114ac565b508061077481612461565b915050610726565b506107856109f2565b50565b6105ef83838360405180602001604052806000815250610964565b60006107ae60085490565b82106108225760405162461bcd60e51b815260206004820152602c60248201527f455243373231456e756d657261626c653a20676c6f62616c20696e646578206f60448201527f7574206f6620626f756e64730000000000000000000000000000000000000000606482015260840161054e565b6008828154811061083557610835612435565b90600052602060002001549050919050565b6000818152600260205260408120546001600160a01b0316806103fe5760405162461bcd60e51b815260206004820152601860248201527f4552433732313a20696e76616c696420746f6b656e2049440000000000000000604482015260640161054e565b60006001600160a01b03821661092a5760405162461bcd60e51b815260206004820152602960248201527f4552433732313a2061646472657373207a65726f206973206e6f74206120766160448201527f6c6964206f776e65720000000000000000000000000000000000000000000000606482015260840161054e565b506001600160a01b031660009081526003602052604090205490565b606060018054610413906123fa565b610960338383611555565b5050565b61096e338361122e565b6109e05760405162461bcd60e51b815260206004820152602e60248201527f4552433732313a2063616c6c6572206973206e6f7420746f6b656e206f776e6560448201527f72206e6f7220617070726f766564000000000000000000000000000000000000606482015260840161054e565b6109ec84848484611624565b50505050565b600b54600c546000916001600160a01b031690606490610a12903461247c565b610a1c91906124b1565b604051600081818185875af1925050503d8060008114610a58576040519150601f19603f3d011682016040523d82523d6000602084013e610a5d565b606091505b5050600d54600e549192506000916001600160a01b0390911690606490610a84903461247c565b610a8e91906124b1565b604051600081818185875af1925050503d8060008114610aca576040519150601f19603f3d011682016040523d82523d6000602084013e610acf565b606091505b5050600f546010549192506000916001600160a01b0390911690606490610af6903461247c565b610b0091906124b1565b604051600081818185875af1925050503d8060008114610b3c576040519150601f19603f3d011682016040523d82523d6000602084013e610b41565b606091505b50506011546012549192506000916001600160a01b0390911690606490610b68903461247c565b610b7291906124b1565b604051600081818185875af1925050503d8060008114610bae576040519150601f19603f3d011682016040523d82523d6000602084013e610bb3565b606091505b50506013546014549192506000916001600160a01b0390911690606490610bda903461247c565b610be491906124b1565b604051600081818185875af1925050503d8060008114610c20576040519150601f19603f3d011682016040523d82523d6000602084013e610c25565b606091505b50506015546016549192506000916001600160a01b0390911690606490610c4c903461247c565b610c5691906124b1565b604051600081818185875af1925050503d8060008114610c92576040519150601f19603f3d011682016040523d82523d6000602084013e610c97565b606091505b50506017546018549192506000916001600160a01b0390911690606490610cbe903461247c565b610cc891906124b1565b604051600081818185875af1925050503d8060008114610d04576040519150601f19603f3d011682016040523d82523d6000602084013e610d09565b606091505b5050601954601a549192506000916001600160a01b0390911690606490610d30903461247c565b610d3a91906124b1565b604051600081818185875af1925050503d8060008114610d76576040519150601f19603f3d011682016040523d82523d6000602084013e610d7b565b606091505b5050601b54601c549192506000916001600160a01b0390911690606490610da2903461247c565b610dac91906124b1565b604051600081818185875af1925050503d8060008114610de8576040519150601f19603f3d011682016040523d82523d6000602084013e610ded565b606091505b5050601d54601e549192506000916001600160a01b0390911690606490610e14903461247c565b610e1e91906124b1565b604051600081818185875af1925050503d8060008114610e5a576040519150601f19603f3d011682016040523d82523d6000602084013e610e5f565b606091505b5050601f546020549192506000916001600160a01b0390911690606490610e86903461247c565b610e9091906124b1565b604051600081818185875af1925050503d8060008114610ecc576040519150601f19603f3d011682016040523d82523d6000602084013e610ed1565b606091505b50506021546022549192506000916001600160a01b0390911690606490610ef8903461247c565b610f0291906124b1565b604051600081818185875af1925050503d8060008114610f3e576040519150601f19603f3d011682016040523d82523d6000602084013e610f43565b606091505b50506023546024549192506000916001600160a01b0390911690606490610f6a903461247c565b610f7491906124b1565b604051600081818185875af1925050503d8060008114610fb0576040519150601f19603f3d011682016040523d82523d6000602084013e610fb5565b606091505b50506025546026549192506000916001600160a01b0390911690606490610fdc903461247c565b610fe691906124b1565b604051600081818185875af1925050503d8060008114611022576040519150601f19603f3d011682016040523d82523d6000602084013e611027565b606091505b50506027546028549192506000916001600160a01b039091169060649061104e903461247c565b61105891906124b1565b604051600081818185875af1925050503d8060008114611094576040519150601f19603f3d011682016040523d82523d6000602084013e611099565b606091505b505050505050505050505050505050505050565b606063636061804210156110da576040518060800160405280604f81526020016125a7604f913992915050565b6103fe826116a2565b919050565b60006110f360085490565b90506110ff3382611492565b61110981836114ac565b6109606109f2565b60006001600160e01b031982167f780e9d630000000000000000000000000000000000000000000000000000000014806103fe57506103fe826117ab565b6000818152600260205260409020546001600160a01b03166107855760405162461bcd60e51b815260206004820152601860248201527f4552433732313a20696e76616c696420746f6b656e2049440000000000000000604482015260640161054e565b6000818152600460205260409020805473ffffffffffffffffffffffffffffffffffffffff19166001600160a01b03841690811790915581906111f582610847565b6001600160a01b03167f8c5be1e5ebec7d5bd14f71427d1e84f3dd0314c0f7b2291e5b200ac8c7c3b92560405160405180910390a45050565b60008061123a83610847565b9050806001600160a01b0316846001600160a01b0316148061128157506001600160a01b0380821660009081526005602090815260408083209388168352929052205460ff165b806112a55750836001600160a01b031661129a84610496565b6001600160a01b0316145b949350505050565b826001600160a01b03166112c082610847565b6001600160a01b03161461133c5760405162461bcd60e51b815260206004820152602560248201527f4552433732313a207472616e736665722066726f6d20696e636f72726563742060448201527f6f776e6572000000000000000000000000000000000000000000000000000000606482015260840161054e565b6001600160a01b0382166113b75760405162461bcd60e51b8152602060048201526024808201527f4552433732313a207472616e7366657220746f20746865207a65726f2061646460448201527f7265737300000000000000000000000000000000000000000000000000000000606482015260840161054e565b6113c2838383611846565b6113cd6000826111b3565b6001600160a01b03831660009081526003602052604081208054600192906113f69084906124c5565b90915550506001600160a01b03821660009081526003602052604081208054600192906114249084906124dc565b9091555050600081815260026020526040808220805473ffffffffffffffffffffffffffffffffffffffff19166001600160a01b0386811691821790925591518493918716917fddf252ad1be2c89b69c2b068fc378daa952ba7f163c4a11628f55a4df523b3ef91a4505050565b610960828260405180602001604052806000815250611851565b6000828152600260205260409020546001600160a01b03166115365760405162461bcd60e51b815260206004820152602e60248201527f45524337323155524953746f726167653a2055524920736574206f66206e6f6e60448201527f6578697374656e7420746f6b656e000000000000000000000000000000000000606482015260840161054e565b6000828152600a6020908152604090912082516105ef92840190611f70565b816001600160a01b0316836001600160a01b031614156115b75760405162461bcd60e51b815260206004820152601960248201527f4552433732313a20617070726f766520746f2063616c6c657200000000000000604482015260640161054e565b6001600160a01b03838116600081815260056020908152604080832094871680845294825291829020805460ff191686151590811790915591519182527f17307eab39ab6107e8899845ad3d59bd9653f200f220920489ca2b5937696c31910160405180910390a3505050565b61162f8484846112ad565b61163b848484846118cf565b6109ec5760405162461bcd60e51b815260206004820152603260248201527f4552433732313a207472616e7366657220746f206e6f6e20455243373231526560448201527131b2b4bb32b91034b6b83632b6b2b73a32b960711b606482015260840161054e565b60606116ad8261114f565b6000828152600a6020526040812080546116c6906123fa565b80601f01602080910402602001604051908101604052809291908181526020018280546116f2906123fa565b801561173f5780601f106117145761010080835404028352916020019161173f565b820191906000526020600020905b81548152906001019060200180831161172257829003601f168201915b50505050509050600061175d60408051602081019091526000815290565b9050805160001415611770575092915050565b8151156117a257808260405160200161178a9291906124f4565b60405160208183030381529060405292505050919050565b6112a584611a27565b60006001600160e01b031982167f80ac58cd00000000000000000000000000000000000000000000000000000000148061180e57506001600160e01b031982167f5b5e139f00000000000000000000000000000000000000000000000000000000145b806103fe57507f01ffc9a7000000000000000000000000000000000000000000000000000000006001600160e01b03198316146103fe565b6105ef838383611a9b565b61185b8383611b53565b61186860008484846118cf565b6105ef5760405162461bcd60e51b815260206004820152603260248201527f4552433732313a207472616e7366657220746f206e6f6e20455243373231526560448201527131b2b4bb32b91034b6b83632b6b2b73a32b960711b606482015260840161054e565b60006001600160a01b0384163b15611a1c57604051630a85bd0160e11b81526001600160a01b0385169063150b7a0290611913903390899088908890600401612523565b602060405180830381600087803b15801561192d57600080fd5b505af192505050801561195d575060408051601f3d908101601f1916820190925261195a9181019061255f565b60015b611a02573d80801561198b576040519150601f19603f3d011682016040523d82523d6000602084013e611990565b606091505b5080516119fa5760405162461bcd60e51b815260206004820152603260248201527f4552433732313a207472616e7366657220746f206e6f6e20455243373231526560448201527131b2b4bb32b91034b6b83632b6b2b73a32b960711b606482015260840161054e565b805181602001fd5b6001600160e01b031916630a85bd0160e11b1490506112a5565b506001949350505050565b6060611a328261114f565b6000611a4960408051602081019091526000815290565b90506000815111611a695760405180602001604052806000815250611a94565b80611a7384611cae565b604051602001611a849291906124f4565b6040516020818303038152906040525b9392505050565b6001600160a01b038316611af657611af181600880546000838152600960205260408120829055600182018355919091527ff3f7a9fe364faab93b216da50a3214154f22a0a2b415b23a84c8169e8b636ee30155565b611b19565b816001600160a01b0316836001600160a01b031614611b1957611b198382611de0565b6001600160a01b038216611b30576105ef81611e7d565b826001600160a01b0316826001600160a01b0316146105ef576105ef8282611f2c565b6001600160a01b038216611ba95760405162461bcd60e51b815260206004820181905260248201527f4552433732313a206d696e7420746f20746865207a65726f2061646472657373604482015260640161054e565b6000818152600260205260409020546001600160a01b031615611c0e5760405162461bcd60e51b815260206004820152601c60248201527f4552433732313a20746f6b656e20616c7265616479206d696e74656400000000604482015260640161054e565b611c1a60008383611846565b6001600160a01b0382166000908152600360205260408120805460019290611c439084906124dc565b9091555050600081815260026020526040808220805473ffffffffffffffffffffffffffffffffffffffff19166001600160a01b03861690811790915590518392907fddf252ad1be2c89b69c2b068fc378daa952ba7f163c4a11628f55a4df523b3ef908290a45050565b606081611cee57505060408051808201909152600181527f3000000000000000000000000000000000000000000000000000000000000000602082015290565b8160005b8115611d185780611d0281612461565b9150611d119050600a836124b1565b9150611cf2565b60008167ffffffffffffffff811115611d3357611d3361213d565b6040519080825280601f01601f191660200182016040528015611d5d576020820181803683370190505b5090505b84156112a557611d726001836124c5565b9150611d7f600a8661257c565b611d8a9060306124dc565b60f81b818381518110611d9f57611d9f612435565b60200101907effffffffffffffffffffffffffffffffffffffffffffffffffffffffffffff1916908160001a905350611dd9600a866124b1565b9450611d61565b60006001611ded846108ac565b611df791906124c5565b600083815260076020526040902054909150808214611e4a576001600160a01b03841660009081526006602090815260408083208584528252808320548484528184208190558352600790915290208190555b5060009182526007602090815260408084208490556001600160a01b039094168352600681528383209183525290812055565b600854600090611e8f906001906124c5565b60008381526009602052604081205460088054939450909284908110611eb757611eb7612435565b906000526020600020015490508060088381548110611ed857611ed8612435565b6000918252602080832090910192909255828152600990915260408082208490558582528120556008805480611f1057611f10612590565b6001900381819060005260206000200160009055905550505050565b6000611f37836108ac565b6001600160a01b039093166000908152600660209081526040808320868452825280832085905593825260079052919091209190915550565b828054611f7c906123fa565b90600052602060002090601f016020900481019282611f9e5760008555611fe4565b82601f10611fb757805160ff1916838001178555611fe4565b82800160010185558215611fe4579182015b82811115611fe4578251825591602001919060010190611fc9565b50611ff0929150611ff4565b5090565b5b80821115611ff05760008155600101611ff5565b6001600160e01b03198116811461078557600080fd5b60006020828403121561203157600080fd5b8135611a9481612009565b60005b8381101561205757818101518382015260200161203f565b838111156109ec5750506000910152565b6000815180845261208081602086016020860161203c565b601f01601f19169290920160200192915050565b602081526000611a946020830184612068565b6000602082840312156120b957600080fd5b5035919050565b80356001600160a01b03811681146110e357600080fd5b600080604083850312156120ea57600080fd5b6120f3836120c0565b946020939093013593505050565b60008060006060848603121561211657600080fd5b61211f846120c0565b925061212d602085016120c0565b9150604084013590509250925092565b634e487b7160e01b600052604160045260246000fd5b604051601f8201601f1916810167ffffffffffffffff8111828210171561217c5761217c61213d565b604052919050565b600067ffffffffffffffff83111561219e5761219e61213d565b6121b1601f8401601f1916602001612153565b90508281528383830111156121c557600080fd5b828260208301376000602084830101529392505050565b600082601f8301126121ed57600080fd5b611a9483833560208501612184565b6000602080838503121561220f57600080fd5b823567ffffffffffffffff8082111561222757600080fd5b818501915085601f83011261223b57600080fd5b81358181111561224d5761224d61213d565b8060051b61225c858201612153565b918252838101850191858101908984111561227657600080fd5b86860192505b838310156122b2578235858111156122945760008081fd5b6122a28b89838a01016121dc565b835250918601919086019061227c565b9998505050505050505050565b6000602082840312156122d157600080fd5b611a94826120c0565b600080604083850312156122ed57600080fd5b6122f6836120c0565b91506020830135801515811461230b57600080fd5b809150509250929050565b6000806000806080858703121561232c57600080fd5b612335856120c0565b9350612343602086016120c0565b925060408501359150606085013567ffffffffffffffff81111561236657600080fd5b8501601f8101871361237757600080fd5b61238687823560208401612184565b91505092959194509250565b6000602082840312156123a457600080fd5b813567ffffffffffffffff8111156123bb57600080fd5b6112a5848285016121dc565b600080604083850312156123da57600080fd5b6123e3836120c0565b91506123f1602084016120c0565b90509250929050565b600181811c9082168061240e57607f821691505b6020821081141561242f57634e487b7160e01b600052602260045260246000fd5b50919050565b634e487b7160e01b600052603260045260246000fd5b634e487b7160e01b600052601160045260246000fd5b60006000198214156124755761247561244b565b5060010190565b60008160001904831182151516156124965761249661244b565b500290565b634e487b7160e01b600052601260045260246000fd5b6000826124c0576124c061249b565b500490565b6000828210156124d7576124d761244b565b500390565b600082198211156124ef576124ef61244b565b500190565b6000835161250681846020880161203c565b83519083019061251a81836020880161203c565b01949350505050565b60006001600160a01b038087168352808616602084015250836040830152608060608301526125556080830184612068565b9695505050505050565b60006020828403121561257157600080fd5b8151611a9481612009565b60008261258b5761258b61249b565b500690565b634e487b7160e01b600052603160045260246000fdfe68747470733a2f2f636267622e6d7970696e6174612e636c6f75642f697066732f516d58567373314268654d4e74576876425171563631337575396e6836376663466839654d464639617661646678a26469706673582212207883ba7b794cd3079ad50c264404c0a7b684caeefc543974a6da09681aa6c44964736f6c63430008080033",
  "linkReferences": {},
  "deployedLinkReferences": {}
}