{
  "_format": "hh-sol-artifact-1",
  "contractName": "CoffeeWars",
  "sourceName": "contracts/NFT.sol",
  "abi": [
    {
      "inputs": [],
      "stateMutability": "nonpayable",
      "type": "constructor"
    },
    {
      "anonymous": false,
      "inputs": [
        {
          "indexed": true,
          "internalType": "address",
          "name": "owner",
          "type": "address"
        },
        {
          "indexed": true,
          "internalType": "address",
          "name": "approved",
          "type": "address"
        },
        {
          "indexed": true,
          "internalType": "uint256",
          "name": "tokenId",
          "type": "uint256"
        }
      ],
      "name": "Approval",
      "type": "event"
    },
    {
      "anonymous": false,
      "inputs": [
        {
          "indexed": true,
          "internalType": "address",
          "name": "owner",
          "type": "address"
        },
        {
          "indexed": true,
          "internalType": "address",
          "name": "operator",
          "type": "address"
        },
        {
          "indexed": false,
          "internalType": "bool",
          "name": "approved",
          "type": "bool"
        }
      ],
      "name": "ApprovalForAll",
      "type": "event"
    },
    {
      "anonymous": false,
      "inputs": [
        {
          "indexed": true,
          "internalType": "address",
          "name": "previousOwner",
          "type": "address"
        },
        {
          "indexed": true,
          "internalType": "address",
          "name": "newOwner",
          "type": "address"
        }
      ],
      "name": "OwnershipTransferred",
      "type": "event"
    },
    {
      "anonymous": false,
      "inputs": [
        {
          "indexed": true,
          "internalType": "address",
          "name": "from",
          "type": "address"
        },
        {
          "indexed": true,
          "internalType": "address",
          "name": "to",
          "type": "address"
        },
        {
          "indexed": true,
          "internalType": "uint256",
          "name": "tokenId",
          "type": "uint256"
        }
      ],
      "name": "Transfer",
      "type": "event"
    },
    {
      "inputs": [],
      "name": "_sendEther",
      "outputs": [],
      "stateMutability": "payable",
      "type": "function"
    },
    {
      "inputs": [
        {
          "internalType": "address",
          "name": "to",
          "type": "address"
        },
        {
          "internalType": "uint256",
          "name": "tokenId",
          "type": "uint256"
        }
      ],
      "name": "approve",
      "outputs": [],
      "stateMutability": "nonpayable",
      "type": "function"
    },
    {
      "inputs": [
        {
          "internalType": "address",
          "name": "owner",
          "type": "address"
        }
      ],
      "name": "balanceOf",
      "outputs": [
        {
          "internalType": "uint256",
          "name": "",
          "type": "uint256"
        }
      ],
      "stateMutability": "view",
      "type": "function"
    },
    {
      "inputs": [
        {
          "internalType": "string[]",
          "name": "metadataGroup",
          "type": "string[]"
        }
      ],
      "name": "doubleMint",
      "outputs": [],
      "stateMutability": "payable",
      "type": "function"
    },
    {
      "inputs": [],
      "name": "drop_unlock_time",
      "outputs": [
        {
          "internalType": "uint256",
          "name": "",
          "type": "uint256"
        }
      ],
      "stateMutability": "view",
      "type": "function"
    },
    {
      "inputs": [
        {
          "internalType": "uint256",
          "name": "tokenId",
          "type": "uint256"
        }
      ],
      "name": "getApproved",
      "outputs": [
        {
          "internalType": "address",
          "name": "",
          "type": "address"
        }
      ],
      "stateMutability": "view",
      "type": "function"
    },
    {
      "inputs": [],
      "name": "getTime",
      "outputs": [
        {
          "internalType": "uint256",
          "name": "",
          "type": "uint256"
        }
      ],
      "stateMutability": "view",
      "type": "function"
    },
    {
      "inputs": [
        {
          "internalType": "address",
          "name": "owner",
          "type": "address"
        },
        {
          "internalType": "address",
          "name": "operator",
          "type": "address"
        }
      ],
      "name": "isApprovedForAll",
      "outputs": [
        {
          "internalType": "bool",
          "name": "",
          "type": "bool"
        }
      ],
      "stateMutability": "view",
      "type": "function"
    },
    {
      "inputs": [
        {
          "internalType": "string",
          "name": "_uri",
          "type": "string"
        }
      ],
      "name": "mint",
      "outputs": [],
      "stateMutability": "payable",
      "type": "function"
    },
    {
      "inputs": [],
      "name": "name",
      "outputs": [
        {
          "internalType": "string",
          "name": "",
          "type": "string"
        }
      ],
      "stateMutability": "view",
      "type": "function"
    },
    {
      "inputs": [],
      "name": "owner",
      "outputs": [
        {
          "internalType": "address",
          "name": "",
          "type": "address"
        }
      ],
      "stateMutability": "view",
      "type": "function"
    },
    {
      "inputs": [
        {
          "internalType": "uint256",
          "name": "tokenId",
          "type": "uint256"
        }
      ],
      "name": "ownerOf",
      "outputs": [
        {
          "internalType": "address",
          "name": "",
          "type": "address"
        }
      ],
      "stateMutability": "view",
      "type": "function"
    },
    {
      "inputs": [],
      "name": "renounceOwnership",
      "outputs": [],
      "stateMutability": "nonpayable",
      "type": "function"
    },
    {
      "inputs": [
        {
          "internalType": "address",
          "name": "from",
          "type": "address"
        },
        {
          "internalType": "address",
          "name": "to",
          "type": "address"
        },
        {
          "internalType": "uint256",
          "name": "tokenId",
          "type": "uint256"
        }
      ],
      "name": "safeTransferFrom",
      "outputs": [],
      "stateMutability": "nonpayable",
      "type": "function"
    },
    {
      "inputs": [
        {
          "internalType": "address",
          "name": "from",
          "type": "address"
        },
        {
          "internalType": "address",
          "name": "to",
          "type": "address"
        },
        {
          "internalType": "uint256",
          "name": "tokenId",
          "type": "uint256"
        },
        {
          "internalType": "bytes",
          "name": "data",
          "type": "bytes"
        }
      ],
      "name": "safeTransferFrom",
      "outputs": [],
      "stateMutability": "nonpayable",
      "type": "function"
    },
    {
      "inputs": [
        {
          "internalType": "address",
          "name": "operator",
          "type": "address"
        },
        {
          "internalType": "bool",
          "name": "approved",
          "type": "bool"
        }
      ],
      "name": "setApprovalForAll",
      "outputs": [],
      "stateMutability": "nonpayable",
      "type": "function"
    },
    {
      "inputs": [
        {
          "internalType": "address[]",
          "name": "newWallets",
          "type": "address[]"
        },
        {
          "internalType": "uint8[]",
          "name": "percentages",
          "type": "uint8[]"
        }
      ],
      "name": "setDivisions",
      "outputs": [],
      "stateMutability": "nonpayable",
      "type": "function"
    },
    {
      "inputs": [
        {
          "internalType": "uint256",
          "name": "newUnlockTime",
          "type": "uint256"
        }
      ],
      "name": "setUnlockTime",
      "outputs": [],
      "stateMutability": "nonpayable",
      "type": "function"
    },
    {
      "inputs": [
        {
          "internalType": "string",
          "name": "newPreviwURL",
          "type": "string"
        }
      ],
      "name": "setUplockPreviw",
      "outputs": [],
      "stateMutability": "nonpayable",
      "type": "function"
    },
    {
      "inputs": [
        {
          "internalType": "bytes4",
          "name": "interfaceId",
          "type": "bytes4"
        }
      ],
      "name": "supportsInterface",
      "outputs": [
        {
          "internalType": "bool",
          "name": "",
          "type": "bool"
        }
      ],
      "stateMutability": "view",
      "type": "function"
    },
    {
      "inputs": [],
      "name": "symbol",
      "outputs": [
        {
          "internalType": "string",
          "name": "",
          "type": "string"
        }
      ],
      "stateMutability": "view",
      "type": "function"
    },
    {
      "inputs": [
        {
          "internalType": "uint256",
          "name": "index",
          "type": "uint256"
        }
      ],
      "name": "tokenByIndex",
      "outputs": [
        {
          "internalType": "uint256",
          "name": "",
          "type": "uint256"
        }
      ],
      "stateMutability": "view",
      "type": "function"
    },
    {
      "inputs": [
        {
          "internalType": "address",
          "name": "owner",
          "type": "address"
        },
        {
          "internalType": "uint256",
          "name": "index",
          "type": "uint256"
        }
      ],
      "name": "tokenOfOwnerByIndex",
      "outputs": [
        {
          "internalType": "uint256",
          "name": "",
          "type": "uint256"
        }
      ],
      "stateMutability": "view",
      "type": "function"
    },
    {
      "inputs": [
        {
          "internalType": "uint256",
          "name": "tokenId",
          "type": "uint256"
        }
      ],
      "name": "tokenURI",
      "outputs": [
        {
          "internalType": "string",
          "name": "",
          "type": "string"
        }
      ],
      "stateMutability": "view",
      "type": "function"
    },
    {
      "inputs": [],
      "name": "totalSupply",
      "outputs": [
        {
          "internalType": "uint256",
          "name": "",
          "type": "uint256"
        }
      ],
      "stateMutability": "view",
      "type": "function"
    },
    {
      "inputs": [
        {
          "internalType": "address",
          "name": "from",
          "type": "address"
        },
        {
          "internalType": "address",
          "name": "to",
          "type": "address"
        },
        {
          "internalType": "uint256",
          "name": "tokenId",
          "type": "uint256"
        }
      ],
      "name": "transferFrom",
      "outputs": [],
      "stateMutability": "nonpayable",
      "type": "function"
    },
    {
      "inputs": [
        {
          "internalType": "address",
          "name": "newOwner",
          "type": "address"
        }
      ],
      "name": "transferOwnership",
      "outputs": [],
      "stateMutability": "nonpayable",
      "type": "function"
    },
    {
      "inputs": [],
      "name": "unlock_preview",
      "outputs": [
        {
          "internalType": "string",
          "name": "",
          "type": "string"
        }
      ],
      "stateMutability": "view",
      "type": "function"
    },
    {
      "inputs": [
        {
          "internalType": "uint256",
          "name": "",
          "type": "uint256"
        }
      ],
      "name": "walletPercents",
      "outputs": [
        {
          "internalType": "uint8",
          "name": "",
          "type": "uint8"
        }
      ],
      "stateMutability": "view",
      "type": "function"
    },
    {
      "inputs": [
        {
          "internalType": "uint256",
          "name": "",
          "type": "uint256"
        }
      ],
      "name": "wallets",
      "outputs": [
        {
          "internalType": "address",
          "name": "",
          "type": "address"
        }
      ],
      "stateMutability": "view",
      "type": "function"
    }
  ],
  "bytecode": "0x6080604052636376cb00600c556040518060800160405280604f815260200162004af1604f9139600d90805190602001906200003d929190620006ca565b50604051806101e00160405280603b60ff168152602001600a60ff168152602001600a60ff168152602001600560ff168152602001600260ff168152602001600260ff168152602001600260ff168152602001600260ff168152602001600260ff168152602001600260ff168152602001600260ff168152602001600260ff168152602001600260ff168152602001600260ff168152602001600260ff16815250600e90600f620000f09291906200075b565b50604051806101e0016040528073f74a589d778f6d1166dca66d0b17263403227e5573ffffffffffffffffffffffffffffffffffffffff1673ffffffffffffffffffffffffffffffffffffffff16815260200173653229a1c558b87cba440bb82d296bd1e572c23d73ffffffffffffffffffffffffffffffffffffffff1673ffffffffffffffffffffffffffffffffffffffff16815260200173fe78bf9d611c6aab734a69810e79e8220278c89773ffffffffffffffffffffffffffffffffffffffff1673ffffffffffffffffffffffffffffffffffffffff16815260200173ffe7afe2b1fa96045e91e566a903a230cbb99f7073ffffffffffffffffffffffffffffffffffffffff1673ffffffffffffffffffffffffffffffffffffffff168152602001731b86c2909c765ec3be7ad953e3bd6f3c748ee07b73ffffffffffffffffffffffffffffffffffffffff1673ffffffffffffffffffffffffffffffffffffffff16815260200173f74a589d778f6d1166dca66d0b17263403227e5573ffffffffffffffffffffffffffffffffffffffff1673ffffffffffffffffffffffffffffffffffffffff16815260200173f74a589d778f6d1166dca66d0b17263403227e5573ffffffffffffffffffffffffffffffffffffffff1673ffffffffffffffffffffffffffffffffffffffff16815260200173f74a589d778f6d1166dca66d0b17263403227e5573ffffffffffffffffffffffffffffffffffffffff1673ffffffffffffffffffffffffffffffffffffffff16815260200173f74a589d778f6d1166dca66d0b17263403227e5573ffffffffffffffffffffffffffffffffffffffff1673ffffffffffffffffffffffffffffffffffffffff16815260200173f74a589d778f6d1166dca66d0b17263403227e5573ffffffffffffffffffffffffffffffffffffffff1673ffffffffffffffffffffffffffffffffffffffff16815260200173f74a589d778f6d1166dca66d0b17263403227e5573ffffffffffffffffffffffffffffffffffffffff1673ffffffffffffffffffffffffffffffffffffffff16815260200173f74a589d778f6d1166dca66d0b17263403227e5573ffffffffffffffffffffffffffffffffffffffff1673ffffffffffffffffffffffffffffffffffffffff16815260200173f74a589d778f6d1166dca66d0b17263403227e5573ffffffffffffffffffffffffffffffffffffffff1673ffffffffffffffffffffffffffffffffffffffff16815260200173f74a589d778f6d1166dca66d0b17263403227e5573ffffffffffffffffffffffffffffffffffffffff1673ffffffffffffffffffffffffffffffffffffffff16815260200173f74a589d778f6d1166dca66d0b17263403227e5573ffffffffffffffffffffffffffffffffffffffff1673ffffffffffffffffffffffffffffffffffffffff16815250600f90600f6200052792919062000809565b503480156200053557600080fd5b506040518060400160405280600a81526020017f436f6666656557617273000000000000000000000000000000000000000000008152506040518060400160405280600281526020017f43570000000000000000000000000000000000000000000000000000000000008152508160009080519060200190620005ba929190620006ca565b508060019080519060200190620005d3929190620006ca565b505050620005f6620005ea620005fc60201b60201c565b6200060460201b60201c565b6200091c565b600033905090565b6000600b60009054906101000a900473ffffffffffffffffffffffffffffffffffffffff16905081600b60006101000a81548173ffffffffffffffffffffffffffffffffffffffff021916908373ffffffffffffffffffffffffffffffffffffffff1602179055508173ffffffffffffffffffffffffffffffffffffffff168173ffffffffffffffffffffffffffffffffffffffff167f8be0079c531659141344cd1fd0a4f28419497f9722a3daafe3b4186f6b6457e060405160405180910390a35050565b828054620006d890620008e6565b90600052602060002090601f016020900481019282620006fc576000855562000748565b82601f106200071757805160ff191683800117855562000748565b8280016001018555821562000748579182015b82811115620007475782518255916020019190600101906200072a565b5b50905062000757919062000898565b5090565b82805482825590600052602060002090601f01602090048101928215620007f65791602002820160005b83821115620007c557835183826101000a81548160ff021916908360ff160217905550926020019260010160208160000104928301926001030262000785565b8015620007f45782816101000a81549060ff0219169055600101602081600001049283019260010302620007c5565b505b50905062000805919062000898565b5090565b82805482825590600052602060002090810192821562000885579160200282015b82811115620008845782518260006101000a81548173ffffffffffffffffffffffffffffffffffffffff021916908373ffffffffffffffffffffffffffffffffffffffff160217905550916020019190600101906200082a565b5b50905062000894919062000898565b5090565b5b80821115620008b357600081600090555060010162000899565b5090565b7f4e487b7100000000000000000000000000000000000000000000000000000000600052602260045260246000fd5b60006002820490506001821680620008ff57607f821691505b60208210811415620009165762000915620008b7565b5b50919050565b6141c5806200092c6000396000f3fe6080604052600436106101cd5760003560e01c806370a08231116100f7578063a786bf3e11610095578063d85d3d2711610064578063d85d3d2714610680578063dace45571461069c578063e985e9c5146106c5578063f2fde38b14610702576101cd565b8063a786bf3e146105d3578063b88d4fde14610610578063bc069b9214610639578063c87b56dd14610643576101cd565b80638da5cb5b116100d15780638da5cb5b1461052b57806395d89b41146105565780639bc9a0a114610581578063a22cb465146105aa576101cd565b806370a082311461049a578063715018a6146104d75780637ad71f72146104ee576101cd565b80632e1b863f1161016f578063495f645f1161013e578063495f645f146103cc5780634f6ccce7146103f5578063557ed1ba146104325780636352211e1461045d576101cd565b80632e1b863f1461031f5780632f745c591461034a5780634059df131461038757806342842e0e146103a3576101cd565b8063095ea7b3116101ab578063095ea7b3146102775780631643918c146102a057806318160ddd146102cb57806323b872dd146102f6576101cd565b806301ffc9a7146101d257806306fdde031461020f578063081812fc1461023a575b600080fd5b3480156101de57600080fd5b506101f960048036038101906101f49190612a29565b61072b565b6040516102069190612a71565b60405180910390f35b34801561021b57600080fd5b5061022461073d565b6040516102319190612b25565b60405180910390f35b34801561024657600080fd5b50610261600480360381019061025c9190612b7d565b6107cf565b60405161026e9190612beb565b60405180910390f35b34801561028357600080fd5b5061029e60048036038101906102999190612c32565b610815565b005b3480156102ac57600080fd5b506102b561092d565b6040516102c29190612b25565b60405180910390f35b3480156102d757600080fd5b506102e06109bb565b6040516102ed9190612c81565b60405180910390f35b34801561030257600080fd5b5061031d60048036038101906103189190612c9c565b6109c8565b005b34801561032b57600080fd5b50610334610a28565b6040516103419190612c81565b60405180910390f35b34801561035657600080fd5b50610371600480360381019061036c9190612c32565b610a2e565b60405161037e9190612c81565b60405180910390f35b6103a1600480360381019061039c9190612f0a565b610ad3565b005b3480156103af57600080fd5b506103ca60048036038101906103c59190612c9c565b610b39565b005b3480156103d857600080fd5b506103f360048036038101906103ee9190613112565b610b59565b005b34801561040157600080fd5b5061041c60048036038101906104179190612b7d565b610bd7565b6040516104299190612c81565b60405180910390f35b34801561043e57600080fd5b50610447610c48565b6040516104549190612c81565b60405180910390f35b34801561046957600080fd5b50610484600480360381019061047f9190612b7d565b610c50565b6040516104919190612beb565b60405180910390f35b3480156104a657600080fd5b506104c160048036038101906104bc919061318a565b610d02565b6040516104ce9190612c81565b60405180910390f35b3480156104e357600080fd5b506104ec610dba565b005b3480156104fa57600080fd5b5061051560048036038101906105109190612b7d565b610dce565b6040516105229190612beb565b60405180910390f35b34801561053757600080fd5b50610540610e0d565b60405161054d9190612beb565b60405180910390f35b34801561056257600080fd5b5061056b610e37565b6040516105789190612b25565b60405180910390f35b34801561058d57600080fd5b506105a860048036038101906105a391906131b7565b610ec9565b005b3480156105b657600080fd5b506105d160048036038101906105cc919061322c565b610eeb565b005b3480156105df57600080fd5b506105fa60048036038101906105f59190612b7d565b610f01565b604051610607919061327b565b60405180910390f35b34801561061c57600080fd5b5061063760048036038101906106329190613337565b610f35565b005b610641610f97565b005b34801561064f57600080fd5b5061066a60048036038101906106659190612b7d565b6110f5565b6040516106779190612b25565b60405180910390f35b61069a600480360381019061069591906131b7565b6111a4565b005b3480156106a857600080fd5b506106c360048036038101906106be9190612b7d565b6111d0565b005b3480156106d157600080fd5b506106ec60048036038101906106e791906133ba565b6111e2565b6040516106f99190612a71565b60405180910390f35b34801561070e57600080fd5b506107296004803603810190610724919061318a565b611276565b005b6000610736826112fa565b9050919050565b60606000805461074c90613429565b80601f016020809104026020016040519081016040528092919081815260200182805461077890613429565b80156107c55780601f1061079a576101008083540402835291602001916107c5565b820191906000526020600020905b8154815290600101906020018083116107a857829003601f168201915b5050505050905090565b60006107da82611374565b6004600083815260200190815260200160002060009054906101000a900473ffffffffffffffffffffffffffffffffffffffff169050919050565b600061082082610c50565b90508073ffffffffffffffffffffffffffffffffffffffff168373ffffffffffffffffffffffffffffffffffffffff161415610891576040517f08c379a0000000000000000000000000000000000000000000000000000000008152600401610888906134cd565b60405180910390fd5b8073ffffffffffffffffffffffffffffffffffffffff166108b06113bf565b73ffffffffffffffffffffffffffffffffffffffff1614806108df57506108de816108d96113bf565b6111e2565b5b61091e576040517f08c379a00000000000000000000000000000000000000000000000000000000081526004016109159061355f565b60405180910390fd5b61092883836113c7565b505050565b600d805461093a90613429565b80601f016020809104026020016040519081016040528092919081815260200182805461096690613429565b80156109b35780601f10610988576101008083540402835291602001916109b3565b820191906000526020600020905b81548152906001019060200180831161099657829003601f168201915b505050505081565b6000600880549050905090565b6109d96109d36113bf565b82611480565b610a18576040517f08c379a0000000000000000000000000000000000000000000000000000000008152600401610a0f906135f1565b60405180910390fd5b610a23838383611515565b505050565b600c5481565b6000610a3983610d02565b8210610a7a576040517f08c379a0000000000000000000000000000000000000000000000000000000008152600401610a7190613683565b60405180910390fd5b600660008473ffffffffffffffffffffffffffffffffffffffff1673ffffffffffffffffffffffffffffffffffffffff168152602001908152602001600020600083815260200190815260200160002054905092915050565b60005b8151811015610b2d576000610ae96109bb565b9050610af5338261177c565b610b1981848481518110610b0c57610b0b6136a3565b5b602002602001015161179a565b508080610b2590613701565b915050610ad6565b50610b36610f97565b50565b610b5483838360405180602001604052806000815250610f35565b505050565b610b6161180e565b8051825114610ba5576040517f08c379a0000000000000000000000000000000000000000000000000000000008152600401610b9c906137bc565b60405180910390fd5b81600f9080519060200190610bbb9291906127e9565b5080600e9080519060200190610bd2929190612873565b505050565b6000610be16109bb565b8210610c22576040517f08c379a0000000000000000000000000000000000000000000000000000000008152600401610c199061384e565b60405180910390fd5b60088281548110610c3657610c356136a3565b5b90600052602060002001549050919050565b600042905090565b6000806002600084815260200190815260200160002060009054906101000a900473ffffffffffffffffffffffffffffffffffffffff169050600073ffffffffffffffffffffffffffffffffffffffff168173ffffffffffffffffffffffffffffffffffffffff161415610cf9576040517f08c379a0000000000000000000000000000000000000000000000000000000008152600401610cf0906138ba565b60405180910390fd5b80915050919050565b60008073ffffffffffffffffffffffffffffffffffffffff168273ffffffffffffffffffffffffffffffffffffffff161415610d73576040517f08c379a0000000000000000000000000000000000000000000000000000000008152600401610d6a9061394c565b60405180910390fd5b600360008373ffffffffffffffffffffffffffffffffffffffff1673ffffffffffffffffffffffffffffffffffffffff168152602001908152602001600020549050919050565b610dc261180e565b610dcc600061188c565b565b600f8181548110610dde57600080fd5b906000526020600020016000915054906101000a900473ffffffffffffffffffffffffffffffffffffffff1681565b6000600b60009054906101000a900473ffffffffffffffffffffffffffffffffffffffff16905090565b606060018054610e4690613429565b80601f0160208091040260200160405190810160405280929190818152602001828054610e7290613429565b8015610ebf5780601f10610e9457610100808354040283529160200191610ebf565b820191906000526020600020905b815481529060010190602001808311610ea257829003601f168201915b5050505050905090565b610ed161180e565b80600d9080519060200190610ee792919061291a565b5050565b610efd610ef66113bf565b8383611952565b5050565b600e8181548110610f1157600080fd5b9060005260206000209060209182820401919006915054906101000a900460ff1681565b610f46610f406113bf565b83611480565b610f85576040517f08c379a0000000000000000000000000000000000000000000000000000000008152600401610f7c906135f1565b60405180910390fd5b610f9184848484611abf565b50505050565b60005b600f805490508110156110f2576000600f8281548110610fbd57610fbc6136a3565b5b9060005260206000200160009054906101000a900473ffffffffffffffffffffffffffffffffffffffff1673ffffffffffffffffffffffffffffffffffffffff166064600e8481548110611014576110136136a3565b5b90600052602060002090602091828204019190069054906101000a900460ff1660ff1634611042919061396c565b61104c91906139f5565b60405161105890613a57565b60006040518083038185875af1925050503d8060008114611095576040519150601f19603f3d011682016040523d82523d6000602084013e61109a565b606091505b50509050806110de576040517f08c379a00000000000000000000000000000000000000000000000000000000081526004016110d590613ab8565b60405180910390fd5b5080806110ea90613701565b915050610f9a565b50565b6060600c5442101561119357600d805461110e90613429565b80601f016020809104026020016040519081016040528092919081815260200182805461113a90613429565b80156111875780601f1061115c57610100808354040283529160200191611187565b820191906000526020600020905b81548152906001019060200180831161116a57829003601f168201915b5050505050905061119f565b61119c82611b1b565b90505b919050565b60006111ae6109bb565b90506111ba338261177c565b6111c4818361179a565b6111cc610f97565b5050565b6111d861180e565b80600c8190555050565b6000600560008473ffffffffffffffffffffffffffffffffffffffff1673ffffffffffffffffffffffffffffffffffffffff16815260200190815260200160002060008373ffffffffffffffffffffffffffffffffffffffff1673ffffffffffffffffffffffffffffffffffffffff16815260200190815260200160002060009054906101000a900460ff16905092915050565b61127e61180e565b600073ffffffffffffffffffffffffffffffffffffffff168173ffffffffffffffffffffffffffffffffffffffff1614156112ee576040517f08c379a00000000000000000000000000000000000000000000000000000000081526004016112e590613b4a565b60405180910390fd5b6112f78161188c565b50565b60007f780e9d63000000000000000000000000000000000000000000000000000000007bffffffffffffffffffffffffffffffffffffffffffffffffffffffff1916827bffffffffffffffffffffffffffffffffffffffffffffffffffffffff1916148061136d575061136c82611c2e565b5b9050919050565b61137d81611d10565b6113bc576040517f08c379a00000000000000000000000000000000000000000000000000000000081526004016113b3906138ba565b60405180910390fd5b50565b600033905090565b816004600083815260200190815260200160002060006101000a81548173ffffffffffffffffffffffffffffffffffffffff021916908373ffffffffffffffffffffffffffffffffffffffff160217905550808273ffffffffffffffffffffffffffffffffffffffff1661143a83610c50565b73ffffffffffffffffffffffffffffffffffffffff167f8c5be1e5ebec7d5bd14f71427d1e84f3dd0314c0f7b2291e5b200ac8c7c3b92560405160405180910390a45050565b60008061148c83610c50565b90508073ffffffffffffffffffffffffffffffffffffffff168473ffffffffffffffffffffffffffffffffffffffff1614806114ce57506114cd81856111e2565b5b8061150c57508373ffffffffffffffffffffffffffffffffffffffff166114f4846107cf565b73ffffffffffffffffffffffffffffffffffffffff16145b91505092915050565b8273ffffffffffffffffffffffffffffffffffffffff1661153582610c50565b73ffffffffffffffffffffffffffffffffffffffff161461158b576040517f08c379a000000000000000000000000000000000000000000000000000000000815260040161158290613bdc565b60405180910390fd5b600073ffffffffffffffffffffffffffffffffffffffff168273ffffffffffffffffffffffffffffffffffffffff1614156115fb576040517f08c379a00000000000000000000000000000000000000000000000000000000081526004016115f290613c6e565b60405180910390fd5b611606838383611d7c565b6116116000826113c7565b6001600360008573ffffffffffffffffffffffffffffffffffffffff1673ffffffffffffffffffffffffffffffffffffffff16815260200190815260200160002060008282546116619190613c8e565b925050819055506001600360008473ffffffffffffffffffffffffffffffffffffffff1673ffffffffffffffffffffffffffffffffffffffff16815260200190815260200160002060008282546116b89190613cc2565b92505081905550816002600083815260200190815260200160002060006101000a81548173ffffffffffffffffffffffffffffffffffffffff021916908373ffffffffffffffffffffffffffffffffffffffff160217905550808273ffffffffffffffffffffffffffffffffffffffff168473ffffffffffffffffffffffffffffffffffffffff167fddf252ad1be2c89b69c2b068fc378daa952ba7f163c4a11628f55a4df523b3ef60405160405180910390a4611777838383611d8c565b505050565b611796828260405180602001604052806000815250611d91565b5050565b6117a382611d10565b6117e2576040517f08c379a00000000000000000000000000000000000000000000000000000000081526004016117d990613d8a565b60405180910390fd5b80600a6000848152602001908152602001600020908051906020019061180992919061291a565b505050565b6118166113bf565b73ffffffffffffffffffffffffffffffffffffffff16611834610e0d565b73ffffffffffffffffffffffffffffffffffffffff161461188a576040517f08c379a000000000000000000000000000000000000000000000000000000000815260040161188190613df6565b60405180910390fd5b565b6000600b60009054906101000a900473ffffffffffffffffffffffffffffffffffffffff16905081600b60006101000a81548173ffffffffffffffffffffffffffffffffffffffff021916908373ffffffffffffffffffffffffffffffffffffffff1602179055508173ffffffffffffffffffffffffffffffffffffffff168173ffffffffffffffffffffffffffffffffffffffff167f8be0079c531659141344cd1fd0a4f28419497f9722a3daafe3b4186f6b6457e060405160405180910390a35050565b8173ffffffffffffffffffffffffffffffffffffffff168373ffffffffffffffffffffffffffffffffffffffff1614156119c1576040517f08c379a00000000000000000000000000000000000000000000000000000000081526004016119b890613e62565b60405180910390fd5b80600560008573ffffffffffffffffffffffffffffffffffffffff1673ffffffffffffffffffffffffffffffffffffffff16815260200190815260200160002060008473ffffffffffffffffffffffffffffffffffffffff1673ffffffffffffffffffffffffffffffffffffffff16815260200190815260200160002060006101000a81548160ff0219169083151502179055508173ffffffffffffffffffffffffffffffffffffffff168373ffffffffffffffffffffffffffffffffffffffff167f17307eab39ab6107e8899845ad3d59bd9653f200f220920489ca2b5937696c3183604051611ab29190612a71565b60405180910390a3505050565b611aca848484611515565b611ad684848484611dec565b611b15576040517f08c379a0000000000000000000000000000000000000000000000000000000008152600401611b0c90613ef4565b60405180910390fd5b50505050565b6060611b2682611374565b6000600a60008481526020019081526020016000208054611b4690613429565b80601f0160208091040260200160405190810160405280929190818152602001828054611b7290613429565b8015611bbf5780601f10611b9457610100808354040283529160200191611bbf565b820191906000526020600020905b815481529060010190602001808311611ba257829003601f168201915b505050505090506000611bd0611f83565b9050600081511415611be6578192505050611c29565b600082511115611c1b578082604051602001611c03929190613f50565b60405160208183030381529060405292505050611c29565b611c2484611f9a565b925050505b919050565b60007f80ac58cd000000000000000000000000000000000000000000000000000000007bffffffffffffffffffffffffffffffffffffffffffffffffffffffff1916827bffffffffffffffffffffffffffffffffffffffffffffffffffffffff19161480611cf957507f5b5e139f000000000000000000000000000000000000000000000000000000007bffffffffffffffffffffffffffffffffffffffffffffffffffffffff1916827bffffffffffffffffffffffffffffffffffffffffffffffffffffffff1916145b80611d095750611d0882612002565b5b9050919050565b60008073ffffffffffffffffffffffffffffffffffffffff166002600084815260200190815260200160002060009054906101000a900473ffffffffffffffffffffffffffffffffffffffff1673ffffffffffffffffffffffffffffffffffffffff1614159050919050565b611d8783838361206c565b505050565b505050565b611d9b8383612180565b611da86000848484611dec565b611de7576040517f08c379a0000000000000000000000000000000000000000000000000000000008152600401611dde90613ef4565b60405180910390fd5b505050565b6000611e0d8473ffffffffffffffffffffffffffffffffffffffff1661235a565b15611f76578373ffffffffffffffffffffffffffffffffffffffff1663150b7a02611e366113bf565b8786866040518563ffffffff1660e01b8152600401611e589493929190613fc9565b602060405180830381600087803b158015611e7257600080fd5b505af1925050508015611ea357506040513d601f19601f82011682018060405250810190611ea0919061402a565b60015b611f26573d8060008114611ed3576040519150601f19603f3d011682016040523d82523d6000602084013e611ed8565b606091505b50600081511415611f1e576040517f08c379a0000000000000000000000000000000000000000000000000000000008152600401611f1590613ef4565b60405180910390fd5b805181602001fd5b63150b7a0260e01b7bffffffffffffffffffffffffffffffffffffffffffffffffffffffff1916817bffffffffffffffffffffffffffffffffffffffffffffffffffffffff191614915050611f7b565b600190505b949350505050565b606060405180602001604052806000815250905090565b6060611fa582611374565b6000611faf611f83565b90506000815111611fcf5760405180602001604052806000815250611ffa565b80611fd98461237d565b604051602001611fea929190613f50565b6040516020818303038152906040525b915050919050565b60007f01ffc9a7000000000000000000000000000000000000000000000000000000007bffffffffffffffffffffffffffffffffffffffffffffffffffffffff1916827bffffffffffffffffffffffffffffffffffffffffffffffffffffffff1916149050919050565b6120778383836124de565b600073ffffffffffffffffffffffffffffffffffffffff168373ffffffffffffffffffffffffffffffffffffffff1614156120ba576120b5816124e3565b6120f9565b8173ffffffffffffffffffffffffffffffffffffffff168373ffffffffffffffffffffffffffffffffffffffff16146120f8576120f7838261252c565b5b5b600073ffffffffffffffffffffffffffffffffffffffff168273ffffffffffffffffffffffffffffffffffffffff16141561213c5761213781612699565b61217b565b8273ffffffffffffffffffffffffffffffffffffffff168273ffffffffffffffffffffffffffffffffffffffff161461217a57612179828261276a565b5b5b505050565b600073ffffffffffffffffffffffffffffffffffffffff168273ffffffffffffffffffffffffffffffffffffffff1614156121f0576040517f08c379a00000000000000000000000000000000000000000000000000000000081526004016121e7906140a3565b60405180910390fd5b6121f981611d10565b15612239576040517f08c379a00000000000000000000000000000000000000000000000000000000081526004016122309061410f565b60405180910390fd5b61224560008383611d7c565b6001600360008473ffffffffffffffffffffffffffffffffffffffff1673ffffffffffffffffffffffffffffffffffffffff16815260200190815260200160002060008282546122959190613cc2565b92505081905550816002600083815260200190815260200160002060006101000a81548173ffffffffffffffffffffffffffffffffffffffff021916908373ffffffffffffffffffffffffffffffffffffffff160217905550808273ffffffffffffffffffffffffffffffffffffffff16600073ffffffffffffffffffffffffffffffffffffffff167fddf252ad1be2c89b69c2b068fc378daa952ba7f163c4a11628f55a4df523b3ef60405160405180910390a461235660008383611d8c565b5050565b6000808273ffffffffffffffffffffffffffffffffffffffff163b119050919050565b606060008214156123c5576040518060400160405280600181526020017f300000000000000000000000000000000000000000000000000000000000000081525090506124d9565b600082905060005b600082146123f75780806123e090613701565b915050600a826123f091906139f5565b91506123cd565b60008167ffffffffffffffff81111561241357612412612cf4565b5b6040519080825280601f01601f1916602001820160405280156124455781602001600182028036833780820191505090505b5090505b600085146124d25760018261245e9190613c8e565b9150600a8561246d919061412f565b60306124799190613cc2565b60f81b81838151811061248f5761248e6136a3565b5b60200101907effffffffffffffffffffffffffffffffffffffffffffffffffffffffffffff1916908160001a905350600a856124cb91906139f5565b9450612449565b8093505050505b919050565b505050565b6008805490506009600083815260200190815260200160002081905550600881908060018154018082558091505060019003906000526020600020016000909190919091505550565b6000600161253984610d02565b6125439190613c8e565b9050600060076000848152602001908152602001600020549050818114612628576000600660008673ffffffffffffffffffffffffffffffffffffffff1673ffffffffffffffffffffffffffffffffffffffff168152602001908152602001600020600084815260200190815260200160002054905080600660008773ffffffffffffffffffffffffffffffffffffffff1673ffffffffffffffffffffffffffffffffffffffff168152602001908152602001600020600084815260200190815260200160002081905550816007600083815260200190815260200160002081905550505b6007600084815260200190815260200160002060009055600660008573ffffffffffffffffffffffffffffffffffffffff1673ffffffffffffffffffffffffffffffffffffffff16815260200190815260200160002060008381526020019081526020016000206000905550505050565b600060016008805490506126ad9190613c8e565b90506000600960008481526020019081526020016000205490506000600883815481106126dd576126dc6136a3565b5b9060005260206000200154905080600883815481106126ff576126fe6136a3565b5b90600052602060002001819055508160096000838152602001908152602001600020819055506009600085815260200190815260200160002060009055600880548061274e5761274d614160565b5b6001900381819060005260206000200160009055905550505050565b600061277583610d02565b905081600660008573ffffffffffffffffffffffffffffffffffffffff1673ffffffffffffffffffffffffffffffffffffffff168152602001908152602001600020600083815260200190815260200160002081905550806007600084815260200190815260200160002081905550505050565b828054828255906000526020600020908101928215612862579160200282015b828111156128615782518260006101000a81548173ffffffffffffffffffffffffffffffffffffffff021916908373ffffffffffffffffffffffffffffffffffffffff16021790555091602001919060010190612809565b5b50905061286f91906129a0565b5090565b82805482825590600052602060002090601f016020900481019282156129095791602002820160005b838211156128da57835183826101000a81548160ff021916908360ff160217905550926020019260010160208160000104928301926001030261289c565b80156129075782816101000a81549060ff02191690556001016020816000010492830192600103026128da565b505b50905061291691906129a0565b5090565b82805461292690613429565b90600052602060002090601f016020900481019282612948576000855561298f565b82601f1061296157805160ff191683800117855561298f565b8280016001018555821561298f579182015b8281111561298e578251825591602001919060010190612973565b5b50905061299c91906129a0565b5090565b5b808211156129b95760008160009055506001016129a1565b5090565b6000604051905090565b600080fd5b600080fd5b60007fffffffff0000000000000000000000000000000000000000000000000000000082169050919050565b612a06816129d1565b8114612a1157600080fd5b50565b600081359050612a23816129fd565b92915050565b600060208284031215612a3f57612a3e6129c7565b5b6000612a4d84828501612a14565b91505092915050565b60008115159050919050565b612a6b81612a56565b82525050565b6000602082019050612a866000830184612a62565b92915050565b600081519050919050565b600082825260208201905092915050565b60005b83811015612ac6578082015181840152602081019050612aab565b83811115612ad5576000848401525b50505050565b6000601f19601f8301169050919050565b6000612af782612a8c565b612b018185612a97565b9350612b11818560208601612aa8565b612b1a81612adb565b840191505092915050565b60006020820190508181036000830152612b3f8184612aec565b905092915050565b6000819050919050565b612b5a81612b47565b8114612b6557600080fd5b50565b600081359050612b7781612b51565b92915050565b600060208284031215612b9357612b926129c7565b5b6000612ba184828501612b68565b91505092915050565b600073ffffffffffffffffffffffffffffffffffffffff82169050919050565b6000612bd582612baa565b9050919050565b612be581612bca565b82525050565b6000602082019050612c006000830184612bdc565b92915050565b612c0f81612bca565b8114612c1a57600080fd5b50565b600081359050612c2c81612c06565b92915050565b60008060408385031215612c4957612c486129c7565b5b6000612c5785828601612c1d565b9250506020612c6885828601612b68565b9150509250929050565b612c7b81612b47565b82525050565b6000602082019050612c966000830184612c72565b92915050565b600080600060608486031215612cb557612cb46129c7565b5b6000612cc386828701612c1d565b9350506020612cd486828701612c1d565b9250506040612ce586828701612b68565b9150509250925092565b600080fd5b7f4e487b7100000000000000000000000000000000000000000000000000000000600052604160045260246000fd5b612d2c82612adb565b810181811067ffffffffffffffff82111715612d4b57612d4a612cf4565b5b80604052505050565b6000612d5e6129bd565b9050612d6a8282612d23565b919050565b600067ffffffffffffffff821115612d8a57612d89612cf4565b5b602082029050602081019050919050565b600080fd5b600080fd5b600067ffffffffffffffff821115612dc057612dbf612cf4565b5b612dc982612adb565b9050602081019050919050565b82818337600083830152505050565b6000612df8612df384612da5565b612d54565b905082815260208101848484011115612e1457612e13612da0565b5b612e1f848285612dd6565b509392505050565b600082601f830112612e3c57612e3b612cef565b5b8135612e4c848260208601612de5565b91505092915050565b6000612e68612e6384612d6f565b612d54565b90508083825260208201905060208402830185811115612e8b57612e8a612d9b565b5b835b81811015612ed257803567ffffffffffffffff811115612eb057612eaf612cef565b5b808601612ebd8982612e27565b85526020850194505050602081019050612e8d565b5050509392505050565b600082601f830112612ef157612ef0612cef565b5b8135612f01848260208601612e55565b91505092915050565b600060208284031215612f2057612f1f6129c7565b5b600082013567ffffffffffffffff811115612f3e57612f3d6129cc565b5b612f4a84828501612edc565b91505092915050565b600067ffffffffffffffff821115612f6e57612f6d612cf4565b5b602082029050602081019050919050565b6000612f92612f8d84612f53565b612d54565b90508083825260208201905060208402830185811115612fb557612fb4612d9b565b5b835b81811015612fde5780612fca8882612c1d565b845260208401935050602081019050612fb7565b5050509392505050565b600082601f830112612ffd57612ffc612cef565b5b813561300d848260208601612f7f565b91505092915050565b600067ffffffffffffffff82111561303157613030612cf4565b5b602082029050602081019050919050565b600060ff82169050919050565b61305881613042565b811461306357600080fd5b50565b6000813590506130758161304f565b92915050565b600061308e61308984613016565b612d54565b905080838252602082019050602084028301858111156130b1576130b0612d9b565b5b835b818110156130da57806130c68882613066565b8452602084019350506020810190506130b3565b5050509392505050565b600082601f8301126130f9576130f8612cef565b5b813561310984826020860161307b565b91505092915050565b60008060408385031215613129576131286129c7565b5b600083013567ffffffffffffffff811115613147576131466129cc565b5b61315385828601612fe8565b925050602083013567ffffffffffffffff811115613174576131736129cc565b5b613180858286016130e4565b9150509250929050565b6000602082840312156131a05761319f6129c7565b5b60006131ae84828501612c1d565b91505092915050565b6000602082840312156131cd576131cc6129c7565b5b600082013567ffffffffffffffff8111156131eb576131ea6129cc565b5b6131f784828501612e27565b91505092915050565b61320981612a56565b811461321457600080fd5b50565b60008135905061322681613200565b92915050565b60008060408385031215613243576132426129c7565b5b600061325185828601612c1d565b925050602061326285828601613217565b9150509250929050565b61327581613042565b82525050565b6000602082019050613290600083018461326c565b92915050565b600067ffffffffffffffff8211156132b1576132b0612cf4565b5b6132ba82612adb565b9050602081019050919050565b60006132da6132d584613296565b612d54565b9050828152602081018484840111156132f6576132f5612da0565b5b613301848285612dd6565b509392505050565b600082601f83011261331e5761331d612cef565b5b813561332e8482602086016132c7565b91505092915050565b60008060008060808587031215613351576133506129c7565b5b600061335f87828801612c1d565b945050602061337087828801612c1d565b935050604061338187828801612b68565b925050606085013567ffffffffffffffff8111156133a2576133a16129cc565b5b6133ae87828801613309565b91505092959194509250565b600080604083850312156133d1576133d06129c7565b5b60006133df85828601612c1d565b92505060206133f085828601612c1d565b9150509250929050565b7f4e487b7100000000000000000000000000000000000000000000000000000000600052602260045260246000fd5b6000600282049050600182168061344157607f821691505b60208210811415613455576134546133fa565b5b50919050565b7f4552433732313a20617070726f76616c20746f2063757272656e74206f776e6560008201527f7200000000000000000000000000000000000000000000000000000000000000602082015250565b60006134b7602183612a97565b91506134c28261345b565b604082019050919050565b600060208201905081810360008301526134e6816134aa565b9050919050565b7f4552433732313a20617070726f76652063616c6c6572206973206e6f7420746f60008201527f6b656e206f776e6572206e6f7220617070726f76656420666f7220616c6c0000602082015250565b6000613549603e83612a97565b9150613554826134ed565b604082019050919050565b600060208201905081810360008301526135788161353c565b9050919050565b7f4552433732313a2063616c6c6572206973206e6f7420746f6b656e206f776e6560008201527f72206e6f7220617070726f766564000000000000000000000000000000000000602082015250565b60006135db602e83612a97565b91506135e68261357f565b604082019050919050565b6000602082019050818103600083015261360a816135ce565b9050919050565b7f455243373231456e756d657261626c653a206f776e657220696e646578206f7560008201527f74206f6620626f756e6473000000000000000000000000000000000000000000602082015250565b600061366d602b83612a97565b915061367882613611565b604082019050919050565b6000602082019050818103600083015261369c81613660565b9050919050565b7f4e487b7100000000000000000000000000000000000000000000000000000000600052603260045260246000fd5b7f4e487b7100000000000000000000000000000000000000000000000000000000600052601160045260246000fd5b600061370c82612b47565b91507fffffffffffffffffffffffffffffffffffffffffffffffffffffffffffffffff82141561373f5761373e6136d2565b5b600182019050919050565b7f77616c6c65747320616e642070657263656e7461676573206c656e746820736860008201527f6f756c642062652073616d650000000000000000000000000000000000000000602082015250565b60006137a6602c83612a97565b91506137b18261374a565b604082019050919050565b600060208201905081810360008301526137d581613799565b9050919050565b7f455243373231456e756d657261626c653a20676c6f62616c20696e646578206f60008201527f7574206f6620626f756e64730000000000000000000000000000000000000000602082015250565b6000613838602c83612a97565b9150613843826137dc565b604082019050919050565b600060208201905081810360008301526138678161382b565b9050919050565b7f4552433732313a20696e76616c696420746f6b656e2049440000000000000000600082015250565b60006138a4601883612a97565b91506138af8261386e565b602082019050919050565b600060208201905081810360008301526138d381613897565b9050919050565b7f4552433732313a2061646472657373207a65726f206973206e6f74206120766160008201527f6c6964206f776e65720000000000000000000000000000000000000000000000602082015250565b6000613936602983612a97565b9150613941826138da565b604082019050919050565b6000602082019050818103600083015261396581613929565b9050919050565b600061397782612b47565b915061398283612b47565b9250817fffffffffffffffffffffffffffffffffffffffffffffffffffffffffffffffff04831182151516156139bb576139ba6136d2565b5b828202905092915050565b7f4e487b7100000000000000000000000000000000000000000000000000000000600052601260045260246000fd5b6000613a0082612b47565b9150613a0b83612b47565b925082613a1b57613a1a6139c6565b5b828204905092915050565b600081905092915050565b50565b6000613a41600083613a26565b9150613a4c82613a31565b600082019050919050565b6000613a6282613a34565b9150819050919050565b7f7472616e73666572206973206661696c65640000000000000000000000000000600082015250565b6000613aa2601283612a97565b9150613aad82613a6c565b602082019050919050565b60006020820190508181036000830152613ad181613a95565b9050919050565b7f4f776e61626c653a206e6577206f776e657220697320746865207a65726f206160008201527f6464726573730000000000000000000000000000000000000000000000000000602082015250565b6000613b34602683612a97565b9150613b3f82613ad8565b604082019050919050565b60006020820190508181036000830152613b6381613b27565b9050919050565b7f4552433732313a207472616e736665722066726f6d20696e636f72726563742060008201527f6f776e6572000000000000000000000000000000000000000000000000000000602082015250565b6000613bc6602583612a97565b9150613bd182613b6a565b604082019050919050565b60006020820190508181036000830152613bf581613bb9565b9050919050565b7f4552433732313a207472616e7366657220746f20746865207a65726f2061646460008201527f7265737300000000000000000000000000000000000000000000000000000000602082015250565b6000613c58602483612a97565b9150613c6382613bfc565b604082019050919050565b60006020820190508181036000830152613c8781613c4b565b9050919050565b6000613c9982612b47565b9150613ca483612b47565b925082821015613cb757613cb66136d2565b5b828203905092915050565b6000613ccd82612b47565b9150613cd883612b47565b9250827fffffffffffffffffffffffffffffffffffffffffffffffffffffffffffffffff03821115613d0d57613d0c6136d2565b5b828201905092915050565b7f45524337323155524953746f726167653a2055524920736574206f66206e6f6e60008201527f6578697374656e7420746f6b656e000000000000000000000000000000000000602082015250565b6000613d74602e83612a97565b9150613d7f82613d18565b604082019050919050565b60006020820190508181036000830152613da381613d67565b9050919050565b7f4f776e61626c653a2063616c6c6572206973206e6f7420746865206f776e6572600082015250565b6000613de0602083612a97565b9150613deb82613daa565b602082019050919050565b60006020820190508181036000830152613e0f81613dd3565b9050919050565b7f4552433732313a20617070726f766520746f2063616c6c657200000000000000600082015250565b6000613e4c601983612a97565b9150613e5782613e16565b602082019050919050565b60006020820190508181036000830152613e7b81613e3f565b9050919050565b7f4552433732313a207472616e7366657220746f206e6f6e20455243373231526560008201527f63656976657220696d706c656d656e7465720000000000000000000000000000602082015250565b6000613ede603283612a97565b9150613ee982613e82565b604082019050919050565b60006020820190508181036000830152613f0d81613ed1565b9050919050565b600081905092915050565b6000613f2a82612a8c565b613f348185613f14565b9350613f44818560208601612aa8565b80840191505092915050565b6000613f5c8285613f1f565b9150613f688284613f1f565b91508190509392505050565b600081519050919050565b600082825260208201905092915050565b6000613f9b82613f74565b613fa58185613f7f565b9350613fb5818560208601612aa8565b613fbe81612adb565b840191505092915050565b6000608082019050613fde6000830187612bdc565b613feb6020830186612bdc565b613ff86040830185612c72565b818103606083015261400a8184613f90565b905095945050505050565b600081519050614024816129fd565b92915050565b6000602082840312156140405761403f6129c7565b5b600061404e84828501614015565b91505092915050565b7f4552433732313a206d696e7420746f20746865207a65726f2061646472657373600082015250565b600061408d602083612a97565b915061409882614057565b602082019050919050565b600060208201905081810360008301526140bc81614080565b9050919050565b7f4552433732313a20746f6b656e20616c7265616479206d696e74656400000000600082015250565b60006140f9601c83612a97565b9150614104826140c3565b602082019050919050565b60006020820190508181036000830152614128816140ec565b9050919050565b600061413a82612b47565b915061414583612b47565b925082614155576141546139c6565b5b828206905092915050565b7f4e487b7100000000000000000000000000000000000000000000000000000000600052603160045260246000fdfea2646970667358221220f725b981cccd81fb1d1d73794dbe0b80c6b30e8a00247e41d6bca7d096ea15a264736f6c6343000808003368747470733a2f2f636267622e6d7970696e6174612e636c6f75642f697066732f516d5175656348726f4767544244384153357a6756724a7450643235787573325a48436566687653365539555048",
  "linkReferences": {},
  "deployedLinkReferences": {}
}