{
  "_format": "hh-sol-artifact-1",
  "contractName": "CoffeeWars",
  "sourceName": "contracts/NFT.sol",
  "abi": [
    {
      "inputs": [],
      "stateMutability": "nonpayable",
      "type": "constructor"
    },
    {
      "anonymous": false,
      "inputs": [
        {
          "indexed": true,
          "internalType": "address",
          "name": "owner",
          "type": "address"
        },
        {
          "indexed": true,
          "internalType": "address",
          "name": "approved",
          "type": "address"
        },
        {
          "indexed": true,
          "internalType": "uint256",
          "name": "tokenId",
          "type": "uint256"
        }
      ],
      "name": "Approval",
      "type": "event"
    },
    {
      "anonymous": false,
      "inputs": [
        {
          "indexed": true,
          "internalType": "address",
          "name": "owner",
          "type": "address"
        },
        {
          "indexed": true,
          "internalType": "address",
          "name": "operator",
          "type": "address"
        },
        {
          "indexed": false,
          "internalType": "bool",
          "name": "approved",
          "type": "bool"
        }
      ],
      "name": "ApprovalForAll",
      "type": "event"
    },
    {
      "anonymous": false,
      "inputs": [
        {
          "indexed": true,
          "internalType": "address",
          "name": "previousOwner",
          "type": "address"
        },
        {
          "indexed": true,
          "internalType": "address",
          "name": "newOwner",
          "type": "address"
        }
      ],
      "name": "OwnershipTransferred",
      "type": "event"
    },
    {
      "anonymous": false,
      "inputs": [
        {
          "indexed": true,
          "internalType": "address",
          "name": "from",
          "type": "address"
        },
        {
          "indexed": true,
          "internalType": "address",
          "name": "to",
          "type": "address"
        },
        {
          "indexed": true,
          "internalType": "uint256",
          "name": "tokenId",
          "type": "uint256"
        }
      ],
      "name": "Transfer",
      "type": "event"
    },
    {
      "inputs": [],
      "name": "_sendEther",
      "outputs": [],
      "stateMutability": "payable",
      "type": "function"
    },
    {
      "inputs": [
        {
          "internalType": "address",
          "name": "to",
          "type": "address"
        },
        {
          "internalType": "uint256",
          "name": "tokenId",
          "type": "uint256"
        }
      ],
      "name": "approve",
      "outputs": [],
      "stateMutability": "nonpayable",
      "type": "function"
    },
    {
      "inputs": [
        {
          "internalType": "address",
          "name": "owner",
          "type": "address"
        }
      ],
      "name": "balanceOf",
      "outputs": [
        {
          "internalType": "uint256",
          "name": "",
          "type": "uint256"
        }
      ],
      "stateMutability": "view",
      "type": "function"
    },
    {
      "inputs": [
        {
          "internalType": "string[]",
          "name": "metadataGroup",
          "type": "string[]"
        }
      ],
      "name": "doubleMint",
      "outputs": [],
      "stateMutability": "payable",
      "type": "function"
    },
    {
      "inputs": [],
      "name": "drop_unlock_time",
      "outputs": [
        {
          "internalType": "uint256",
          "name": "",
          "type": "uint256"
        }
      ],
      "stateMutability": "view",
      "type": "function"
    },
    {
      "inputs": [
        {
          "internalType": "uint256",
          "name": "tokenId",
          "type": "uint256"
        }
      ],
      "name": "getApproved",
      "outputs": [
        {
          "internalType": "address",
          "name": "",
          "type": "address"
        }
      ],
      "stateMutability": "view",
      "type": "function"
    },
    {
      "inputs": [],
      "name": "getTime",
      "outputs": [
        {
          "internalType": "uint256",
          "name": "",
          "type": "uint256"
        }
      ],
      "stateMutability": "view",
      "type": "function"
    },
    {
      "inputs": [
        {
          "internalType": "address",
          "name": "owner",
          "type": "address"
        },
        {
          "internalType": "address",
          "name": "operator",
          "type": "address"
        }
      ],
      "name": "isApprovedForAll",
      "outputs": [
        {
          "internalType": "bool",
          "name": "",
          "type": "bool"
        }
      ],
      "stateMutability": "view",
      "type": "function"
    },
    {
      "inputs": [
        {
          "internalType": "string",
          "name": "_uri",
          "type": "string"
        }
      ],
      "name": "mint",
      "outputs": [],
      "stateMutability": "payable",
      "type": "function"
    },
    {
      "inputs": [],
      "name": "name",
      "outputs": [
        {
          "internalType": "string",
          "name": "",
          "type": "string"
        }
      ],
      "stateMutability": "view",
      "type": "function"
    },
    {
      "inputs": [],
      "name": "owner",
      "outputs": [
        {
          "internalType": "address",
          "name": "",
          "type": "address"
        }
      ],
      "stateMutability": "view",
      "type": "function"
    },
    {
      "inputs": [
        {
          "internalType": "uint256",
          "name": "tokenId",
          "type": "uint256"
        }
      ],
      "name": "ownerOf",
      "outputs": [
        {
          "internalType": "address",
          "name": "",
          "type": "address"
        }
      ],
      "stateMutability": "view",
      "type": "function"
    },
    {
      "inputs": [],
      "name": "renounceOwnership",
      "outputs": [],
      "stateMutability": "nonpayable",
      "type": "function"
    },
    {
      "inputs": [
        {
          "internalType": "address",
          "name": "from",
          "type": "address"
        },
        {
          "internalType": "address",
          "name": "to",
          "type": "address"
        },
        {
          "internalType": "uint256",
          "name": "tokenId",
          "type": "uint256"
        }
      ],
      "name": "safeTransferFrom",
      "outputs": [],
      "stateMutability": "nonpayable",
      "type": "function"
    },
    {
      "inputs": [
        {
          "internalType": "address",
          "name": "from",
          "type": "address"
        },
        {
          "internalType": "address",
          "name": "to",
          "type": "address"
        },
        {
          "internalType": "uint256",
          "name": "tokenId",
          "type": "uint256"
        },
        {
          "internalType": "bytes",
          "name": "data",
          "type": "bytes"
        }
      ],
      "name": "safeTransferFrom",
      "outputs": [],
      "stateMutability": "nonpayable",
      "type": "function"
    },
    {
      "inputs": [
        {
          "internalType": "address",
          "name": "operator",
          "type": "address"
        },
        {
          "internalType": "bool",
          "name": "approved",
          "type": "bool"
        }
      ],
      "name": "setApprovalForAll",
      "outputs": [],
      "stateMutability": "nonpayable",
      "type": "function"
    },
    {
      "inputs": [
        {
          "internalType": "uint256",
          "name": "newUnlockTime",
          "type": "uint256"
        }
      ],
      "name": "setUnlockTime",
      "outputs": [],
      "stateMutability": "nonpayable",
      "type": "function"
    },
    {
      "inputs": [
        {
          "internalType": "bytes4",
          "name": "interfaceId",
          "type": "bytes4"
        }
      ],
      "name": "supportsInterface",
      "outputs": [
        {
          "internalType": "bool",
          "name": "",
          "type": "bool"
        }
      ],
      "stateMutability": "view",
      "type": "function"
    },
    {
      "inputs": [],
      "name": "symbol",
      "outputs": [
        {
          "internalType": "string",
          "name": "",
          "type": "string"
        }
      ],
      "stateMutability": "view",
      "type": "function"
    },
    {
      "inputs": [
        {
          "internalType": "uint256",
          "name": "index",
          "type": "uint256"
        }
      ],
      "name": "tokenByIndex",
      "outputs": [
        {
          "internalType": "uint256",
          "name": "",
          "type": "uint256"
        }
      ],
      "stateMutability": "view",
      "type": "function"
    },
    {
      "inputs": [
        {
          "internalType": "address",
          "name": "owner",
          "type": "address"
        },
        {
          "internalType": "uint256",
          "name": "index",
          "type": "uint256"
        }
      ],
      "name": "tokenOfOwnerByIndex",
      "outputs": [
        {
          "internalType": "uint256",
          "name": "",
          "type": "uint256"
        }
      ],
      "stateMutability": "view",
      "type": "function"
    },
    {
      "inputs": [
        {
          "internalType": "uint256",
          "name": "tokenId",
          "type": "uint256"
        }
      ],
      "name": "tokenURI",
      "outputs": [
        {
          "internalType": "string",
          "name": "",
          "type": "string"
        }
      ],
      "stateMutability": "view",
      "type": "function"
    },
    {
      "inputs": [],
      "name": "totalSupply",
      "outputs": [
        {
          "internalType": "uint256",
          "name": "",
          "type": "uint256"
        }
      ],
      "stateMutability": "view",
      "type": "function"
    },
    {
      "inputs": [
        {
          "internalType": "address",
          "name": "from",
          "type": "address"
        },
        {
          "internalType": "address",
          "name": "to",
          "type": "address"
        },
        {
          "internalType": "uint256",
          "name": "tokenId",
          "type": "uint256"
        }
      ],
      "name": "transferFrom",
      "outputs": [],
      "stateMutability": "nonpayable",
      "type": "function"
    },
    {
      "inputs": [
        {
          "internalType": "address",
          "name": "newOwner",
          "type": "address"
        }
      ],
      "name": "transferOwnership",
      "outputs": [],
      "stateMutability": "nonpayable",
      "type": "function"
    },
    {
      "inputs": [],
      "name": "unlock_preview",
      "outputs": [
        {
          "internalType": "string",
          "name": "",
          "type": "string"
        }
      ],
      "stateMutability": "view",
      "type": "function"
    },
    {
      "inputs": [
        {
          "internalType": "uint256",
          "name": "",
          "type": "uint256"
        }
      ],
      "name": "walletPercents",
      "outputs": [
        {
          "internalType": "uint8",
          "name": "",
          "type": "uint8"
        }
      ],
      "stateMutability": "view",
      "type": "function"
    },
    {
      "inputs": [
        {
          "internalType": "uint256",
          "name": "",
          "type": "uint256"
        }
      ],
      "name": "wallets",
      "outputs": [
        {
          "internalType": "address",
          "name": "",
          "type": "address"
        }
      ],
      "stateMutability": "view",
      "type": "function"
    }
  ],
  "bytecode": "0x636372d680600c55610100604052604f608081815290620028d960a03980516200003291600d9160209091019062000292565b50604080516101e081018252603b8152600a60208201819052918101919091526005606082015260026080820181905260a0820181905260c0820181905260e08201819052610100820181905261012082018190526101408201819052610160820181905261018082018190526101a082018190526101c0820152620000bd90600e90600f62000321565b50604080516101e08101825273f74a589d778f6d1166dca66d0b17263403227e5580825273653229a1c558b87cba440bb82d296bd1e572c23d602083015273fe78bf9d611c6aab734a69810e79e8220278c8979282019290925273ffe7afe2b1fa96045e91e566a903a230cbb99f706060820152731b86c2909c765ec3be7ad953e3bd6f3c748ee07b608082015260a0810182905260c0810182905260e08101829052610100810182905261012081018290526101408101829052610160810182905261018081018290526101a081018290526101c0810191909152620001a890600f9081620003b6565b50348015620001b657600080fd5b50604080518082018252600a815269436f666665655761727360b01b602080830191825283518085019094526002845261435760f01b908401528151919291620002039160009162000292565b5080516200021990600190602084019062000292565b50505062000236620002306200023c60201b60201c565b62000240565b62000455565b3390565b600b80546001600160a01b038381166001600160a01b0319831681179093556040519116919082907f8be0079c531659141344cd1fd0a4f28419497f9722a3daafe3b4186f6b6457e090600090a35050565b828054620002a09062000418565b90600052602060002090601f016020900481019282620002c457600085556200030f565b82601f10620002df57805160ff19168380011785556200030f565b828001600101855582156200030f579182015b828111156200030f578251825591602001919060010190620002f2565b506200031d92915062000401565b5090565b6001830191839082156200030f5791602002820160005b838211156200037857835183826101000a81548160ff021916908360ff160217905550926020019260010160208160000104928301926001030262000338565b8015620003a75782816101000a81549060ff021916905560010160208160000104928301926001030262000378565b50506200031d92915062000401565b82600f81019282156200030f579160200282015b828111156200030f57825182546001600160a01b0319166001600160a01b03909116178255602090920191600190910190620003ca565b5b808211156200031d576000815560010162000402565b600181811c908216806200042d57607f821691505b602082108114156200044f57634e487b7160e01b600052602260045260246000fd5b50919050565b61247480620004656000396000f3fe6080604052600436106101b75760003560e01c806370a08231116100ec578063b88d4fde1161008a578063d85d3d2711610064578063d85d3d271461049f578063dace4557146104b2578063e985e9c5146104d2578063f2fde38b1461051b57600080fd5b8063b88d4fde14610457578063bc069b9214610477578063c87b56dd1461047f57600080fd5b80638da5cb5b116100c65780638da5cb5b146103d257806395d89b41146103f0578063a22cb46514610405578063a786bf3e1461042557600080fd5b806370a082311461037d578063715018a61461039d5780637ad71f72146103b257600080fd5b80632e1b863f1161015957806342842e0e1161013357806342842e0e1461030a5780634f6ccce71461032a578063557ed1ba1461034a5780636352211e1461035d57600080fd5b80632e1b863f146102c15780632f745c59146102d75780634059df13146102f757600080fd5b8063095ea7b311610195578063095ea7b31461024b5780631643918c1461026d57806318160ddd1461028257806323b872dd146102a157600080fd5b806301ffc9a7146101bc57806306fdde03146101f1578063081812fc14610213575b600080fd5b3480156101c857600080fd5b506101dc6101d7366004611eb7565b61053b565b60405190151581526020015b60405180910390f35b3480156101fd57600080fd5b5061020661054c565b6040516101e89190611f2c565b34801561021f57600080fd5b5061023361022e366004611f3f565b6105de565b6040516001600160a01b0390911681526020016101e8565b34801561025757600080fd5b5061026b610266366004611f6f565b610605565b005b34801561027957600080fd5b5061020661073c565b34801561028e57600080fd5b506008545b6040519081526020016101e8565b3480156102ad57600080fd5b5061026b6102bc366004611f99565b6107ca565b3480156102cd57600080fd5b50610293600c5481565b3480156102e357600080fd5b506102936102f2366004611f6f565b610851565b61026b610305366004612094565b6108f9565b34801561031657600080fd5b5061026b610325366004611f99565b61095e565b34801561033657600080fd5b50610293610345366004611f3f565b610979565b34801561035657600080fd5b5042610293565b34801561036957600080fd5b50610233610378366004611f3f565b610a1d565b34801561038957600080fd5b50610293610398366004612157565b610a82565b3480156103a957600080fd5b5061026b610b1c565b3480156103be57600080fd5b506102336103cd366004611f3f565b610b30565b3480156103de57600080fd5b50600b546001600160a01b0316610233565b3480156103fc57600080fd5b50610206610b50565b34801561041157600080fd5b5061026b610420366004612172565b610b5f565b34801561043157600080fd5b50610445610440366004611f3f565b610b6e565b60405160ff90911681526020016101e8565b34801561046357600080fd5b5061026b6104723660046121ae565b610b98565b61026b610c26565b34801561048b57600080fd5b5061020661049a366004611f3f565b610cf1565b61026b6104ad36600461222a565b610d9d565b3480156104be57600080fd5b5061026b6104cd366004611f3f565b610dc6565b3480156104de57600080fd5b506101dc6104ed36600461225f565b6001600160a01b03918216600090815260056020908152604080832093909416825291909152205460ff1690565b34801561052757600080fd5b5061026b610536366004612157565b610dd3565b600061054682610e60565b92915050565b60606000805461055b90612292565b80601f016020809104026020016040519081016040528092919081815260200182805461058790612292565b80156105d45780601f106105a9576101008083540402835291602001916105d4565b820191906000526020600020905b8154815290600101906020018083116105b757829003601f168201915b5050505050905090565b60006105e982610e9e565b506000908152600460205260409020546001600160a01b031690565b600061061082610a1d565b9050806001600160a01b0316836001600160a01b0316141561069f5760405162461bcd60e51b815260206004820152602160248201527f4552433732313a20617070726f76616c20746f2063757272656e74206f776e6560448201527f720000000000000000000000000000000000000000000000000000000000000060648201526084015b60405180910390fd5b336001600160a01b03821614806106bb57506106bb81336104ed565b61072d5760405162461bcd60e51b815260206004820152603e60248201527f4552433732313a20617070726f76652063616c6c6572206973206e6f7420746f60448201527f6b656e206f776e6572206e6f7220617070726f76656420666f7220616c6c00006064820152608401610696565b6107378383610f02565b505050565b600d805461074990612292565b80601f016020809104026020016040519081016040528092919081815260200182805461077590612292565b80156107c25780601f10610797576101008083540402835291602001916107c2565b820191906000526020600020905b8154815290600101906020018083116107a557829003601f168201915b505050505081565b6107d43382610f7d565b6108465760405162461bcd60e51b815260206004820152602e60248201527f4552433732313a2063616c6c6572206973206e6f7420746f6b656e206f776e6560448201527f72206e6f7220617070726f7665640000000000000000000000000000000000006064820152608401610696565b610737838383610ffc565b600061085c83610a82565b82106108d05760405162461bcd60e51b815260206004820152602b60248201527f455243373231456e756d657261626c653a206f776e657220696e646578206f7560448201527f74206f6620626f756e64730000000000000000000000000000000000000000006064820152608401610696565b506001600160a01b03919091166000908152600660209081526040808320938352929052205490565b60005b815181101561095257600061091060085490565b905061091c33826111e1565b61093f81848481518110610932576109326122cd565b60200260200101516111fb565b508061094a816122f9565b9150506108fc565b5061095b610c26565b50565b61073783838360405180602001604052806000815250610b98565b600061098460085490565b82106109f85760405162461bcd60e51b815260206004820152602c60248201527f455243373231456e756d657261626c653a20676c6f62616c20696e646578206f60448201527f7574206f6620626f756e647300000000000000000000000000000000000000006064820152608401610696565b60088281548110610a0b57610a0b6122cd565b90600052602060002001549050919050565b6000818152600260205260408120546001600160a01b0316806105465760405162461bcd60e51b815260206004820152601860248201527f4552433732313a20696e76616c696420746f6b656e20494400000000000000006044820152606401610696565b60006001600160a01b038216610b005760405162461bcd60e51b815260206004820152602960248201527f4552433732313a2061646472657373207a65726f206973206e6f74206120766160448201527f6c6964206f776e657200000000000000000000000000000000000000000000006064820152608401610696565b506001600160a01b031660009081526003602052604090205490565b610b246112a4565b610b2e60006112fe565b565b600f81600f8110610b4057600080fd5b01546001600160a01b0316905081565b60606001805461055b90612292565b610b6a33838361135d565b5050565b600e81600f8110610b7e57600080fd5b60209182820401919006915054906101000a900460ff1681565b610ba23383610f7d565b610c145760405162461bcd60e51b815260206004820152602e60248201527f4552433732313a2063616c6c6572206973206e6f7420746f6b656e206f776e6560448201527f72206e6f7220617070726f7665640000000000000000000000000000000000006064820152608401610696565b610c208484848461142c565b50505050565b60005b600f81101561095b576000600f82600f8110610c4757610c476122cd565b01546001600160a01b03166064600e84600f8110610c6757610c676122cd565b602081049190910154610c8691601f166101000a900460ff1634612314565b610c909190612349565b604051600081818185875af1925050503d8060008114610ccc576040519150601f19603f3d011682016040523d82523d6000602084013e610cd1565b606091505b50509050610cde816114aa565b5080610ce9816122f9565b915050610c29565b6060600c54421015610d8f57600d8054610d0a90612292565b80601f0160208091040260200160405190810160405280929190818152602001828054610d3690612292565b8015610d835780601f10610d5857610100808354040283529160200191610d83565b820191906000526020600020905b815481529060010190602001808311610d6657829003601f168201915b50505050509050919050565b61054682611519565b919050565b6000610da860085490565b9050610db433826111e1565b610dbe81836111fb565b610b6a610c26565b610dce6112a4565b600c55565b610ddb6112a4565b6001600160a01b038116610e575760405162461bcd60e51b815260206004820152602660248201527f4f776e61626c653a206e6577206f776e657220697320746865207a65726f206160448201527f64647265737300000000000000000000000000000000000000000000000000006064820152608401610696565b61095b816112fe565b60006001600160e01b031982167f780e9d63000000000000000000000000000000000000000000000000000000001480610546575061054682611622565b6000818152600260205260409020546001600160a01b031661095b5760405162461bcd60e51b815260206004820152601860248201527f4552433732313a20696e76616c696420746f6b656e20494400000000000000006044820152606401610696565b6000818152600460205260409020805473ffffffffffffffffffffffffffffffffffffffff19166001600160a01b0384169081179091558190610f4482610a1d565b6001600160a01b03167f8c5be1e5ebec7d5bd14f71427d1e84f3dd0314c0f7b2291e5b200ac8c7c3b92560405160405180910390a45050565b600080610f8983610a1d565b9050806001600160a01b0316846001600160a01b03161480610fd057506001600160a01b0380821660009081526005602090815260408083209388168352929052205460ff165b80610ff45750836001600160a01b0316610fe9846105de565b6001600160a01b0316145b949350505050565b826001600160a01b031661100f82610a1d565b6001600160a01b03161461108b5760405162461bcd60e51b815260206004820152602560248201527f4552433732313a207472616e736665722066726f6d20696e636f72726563742060448201527f6f776e65720000000000000000000000000000000000000000000000000000006064820152608401610696565b6001600160a01b0382166111065760405162461bcd60e51b8152602060048201526024808201527f4552433732313a207472616e7366657220746f20746865207a65726f2061646460448201527f72657373000000000000000000000000000000000000000000000000000000006064820152608401610696565b6111118383836116bd565b61111c600082610f02565b6001600160a01b038316600090815260036020526040812080546001929061114590849061235d565b90915550506001600160a01b0382166000908152600360205260408120805460019290611173908490612374565b9091555050600081815260026020526040808220805473ffffffffffffffffffffffffffffffffffffffff19166001600160a01b0386811691821790925591518493918716917fddf252ad1be2c89b69c2b068fc378daa952ba7f163c4a11628f55a4df523b3ef91a4505050565b610b6a8282604051806020016040528060008152506116c8565b6000828152600260205260409020546001600160a01b03166112855760405162461bcd60e51b815260206004820152602e60248201527f45524337323155524953746f726167653a2055524920736574206f66206e6f6e60448201527f6578697374656e7420746f6b656e0000000000000000000000000000000000006064820152608401610696565b6000828152600a60209081526040909120825161073792840190611e08565b600b546001600160a01b03163314610b2e5760405162461bcd60e51b815260206004820181905260248201527f4f776e61626c653a2063616c6c6572206973206e6f7420746865206f776e65726044820152606401610696565b600b80546001600160a01b0383811673ffffffffffffffffffffffffffffffffffffffff19831681179093556040519116919082907f8be0079c531659141344cd1fd0a4f28419497f9722a3daafe3b4186f6b6457e090600090a35050565b816001600160a01b0316836001600160a01b031614156113bf5760405162461bcd60e51b815260206004820152601960248201527f4552433732313a20617070726f766520746f2063616c6c6572000000000000006044820152606401610696565b6001600160a01b03838116600081815260056020908152604080832094871680845294825291829020805460ff191686151590811790915591519182527f17307eab39ab6107e8899845ad3d59bd9653f200f220920489ca2b5937696c31910160405180910390a3505050565b611437848484610ffc565b61144384848484611746565b610c205760405162461bcd60e51b815260206004820152603260248201527f4552433732313a207472616e7366657220746f206e6f6e20455243373231526560448201527131b2b4bb32b91034b6b83632b6b2b73a32b960711b6064820152608401610696565b604051811515602482015261095b9060440160408051601f198184030181529190526020810180517bffffffffffffffffffffffffffffffffffffffffffffffffffffffff167f32458eed0000000000000000000000000000000000000000000000000000000017905261189e565b606061152482610e9e565b6000828152600a60205260408120805461153d90612292565b80601f016020809104026020016040519081016040528092919081815260200182805461156990612292565b80156115b65780601f1061158b576101008083540402835291602001916115b6565b820191906000526020600020905b81548152906001019060200180831161159957829003601f168201915b5050505050905060006115d460408051602081019091526000815290565b90508051600014156115e7575092915050565b81511561161957808260405160200161160192919061238c565b60405160208183030381529060405292505050919050565b610ff4846118bf565b60006001600160e01b031982167f80ac58cd00000000000000000000000000000000000000000000000000000000148061168557506001600160e01b031982167f5b5e139f00000000000000000000000000000000000000000000000000000000145b8061054657507f01ffc9a7000000000000000000000000000000000000000000000000000000006001600160e01b0319831614610546565b610737838383611933565b6116d283836119eb565b6116df6000848484611746565b6107375760405162461bcd60e51b815260206004820152603260248201527f4552433732313a207472616e7366657220746f206e6f6e20455243373231526560448201527131b2b4bb32b91034b6b83632b6b2b73a32b960711b6064820152608401610696565b60006001600160a01b0384163b1561189357604051630a85bd0160e11b81526001600160a01b0385169063150b7a029061178a9033908990889088906004016123bb565b602060405180830381600087803b1580156117a457600080fd5b505af19250505080156117d4575060408051601f3d908101601f191682019092526117d1918101906123f7565b60015b611879573d808015611802576040519150601f19603f3d011682016040523d82523d6000602084013e611807565b606091505b5080516118715760405162461bcd60e51b815260206004820152603260248201527f4552433732313a207472616e7366657220746f206e6f6e20455243373231526560448201527131b2b4bb32b91034b6b83632b6b2b73a32b960711b6064820152608401610696565b805181602001fd5b6001600160e01b031916630a85bd0160e11b149050610ff4565b506001949350505050565b80516a636f6e736f6c652e6c6f67602083016000808483855afa5050505050565b60606118ca82610e9e565b60006118e160408051602081019091526000815290565b90506000815111611901576040518060200160405280600081525061192c565b8061190b84611b46565b60405160200161191c92919061238c565b6040516020818303038152906040525b9392505050565b6001600160a01b03831661198e5761198981600880546000838152600960205260408120829055600182018355919091527ff3f7a9fe364faab93b216da50a3214154f22a0a2b415b23a84c8169e8b636ee30155565b6119b1565b816001600160a01b0316836001600160a01b0316146119b1576119b18382611c78565b6001600160a01b0382166119c85761073781611d15565b826001600160a01b0316826001600160a01b031614610737576107378282611dc4565b6001600160a01b038216611a415760405162461bcd60e51b815260206004820181905260248201527f4552433732313a206d696e7420746f20746865207a65726f20616464726573736044820152606401610696565b6000818152600260205260409020546001600160a01b031615611aa65760405162461bcd60e51b815260206004820152601c60248201527f4552433732313a20746f6b656e20616c7265616479206d696e746564000000006044820152606401610696565b611ab2600083836116bd565b6001600160a01b0382166000908152600360205260408120805460019290611adb908490612374565b9091555050600081815260026020526040808220805473ffffffffffffffffffffffffffffffffffffffff19166001600160a01b03861690811790915590518392907fddf252ad1be2c89b69c2b068fc378daa952ba7f163c4a11628f55a4df523b3ef908290a45050565b606081611b8657505060408051808201909152600181527f3000000000000000000000000000000000000000000000000000000000000000602082015290565b8160005b8115611bb05780611b9a816122f9565b9150611ba99050600a83612349565b9150611b8a565b60008167ffffffffffffffff811115611bcb57611bcb611fd5565b6040519080825280601f01601f191660200182016040528015611bf5576020820181803683370190505b5090505b8415610ff457611c0a60018361235d565b9150611c17600a86612414565b611c22906030612374565b60f81b818381518110611c3757611c376122cd565b60200101907effffffffffffffffffffffffffffffffffffffffffffffffffffffffffffff1916908160001a905350611c71600a86612349565b9450611bf9565b60006001611c8584610a82565b611c8f919061235d565b600083815260076020526040902054909150808214611ce2576001600160a01b03841660009081526006602090815260408083208584528252808320548484528184208190558352600790915290208190555b5060009182526007602090815260408084208490556001600160a01b039094168352600681528383209183525290812055565b600854600090611d279060019061235d565b60008381526009602052604081205460088054939450909284908110611d4f57611d4f6122cd565b906000526020600020015490508060088381548110611d7057611d706122cd565b6000918252602080832090910192909255828152600990915260408082208490558582528120556008805480611da857611da8612428565b6001900381819060005260206000200160009055905550505050565b6000611dcf83610a82565b6001600160a01b039093166000908152600660209081526040808320868452825280832085905593825260079052919091209190915550565b828054611e1490612292565b90600052602060002090601f016020900481019282611e365760008555611e7c565b82601f10611e4f57805160ff1916838001178555611e7c565b82800160010185558215611e7c579182015b82811115611e7c578251825591602001919060010190611e61565b50611e88929150611e8c565b5090565b5b80821115611e885760008155600101611e8d565b6001600160e01b03198116811461095b57600080fd5b600060208284031215611ec957600080fd5b813561192c81611ea1565b60005b83811015611eef578181015183820152602001611ed7565b83811115610c205750506000910152565b60008151808452611f18816020860160208601611ed4565b601f01601f19169290920160200192915050565b60208152600061192c6020830184611f00565b600060208284031215611f5157600080fd5b5035919050565b80356001600160a01b0381168114610d9857600080fd5b60008060408385031215611f8257600080fd5b611f8b83611f58565b946020939093013593505050565b600080600060608486031215611fae57600080fd5b611fb784611f58565b9250611fc560208501611f58565b9150604084013590509250925092565b634e487b7160e01b600052604160045260246000fd5b604051601f8201601f1916810167ffffffffffffffff8111828210171561201457612014611fd5565b604052919050565b600067ffffffffffffffff83111561203657612036611fd5565b612049601f8401601f1916602001611feb565b905082815283838301111561205d57600080fd5b828260208301376000602084830101529392505050565b600082601f83011261208557600080fd5b61192c8383356020850161201c565b600060208083850312156120a757600080fd5b823567ffffffffffffffff808211156120bf57600080fd5b818501915085601f8301126120d357600080fd5b8135818111156120e5576120e5611fd5565b8060051b6120f4858201611feb565b918252838101850191858101908984111561210e57600080fd5b86860192505b8383101561214a5782358581111561212c5760008081fd5b61213a8b89838a0101612074565b8352509186019190860190612114565b9998505050505050505050565b60006020828403121561216957600080fd5b61192c82611f58565b6000806040838503121561218557600080fd5b61218e83611f58565b9150602083013580151581146121a357600080fd5b809150509250929050565b600080600080608085870312156121c457600080fd5b6121cd85611f58565b93506121db60208601611f58565b925060408501359150606085013567ffffffffffffffff8111156121fe57600080fd5b8501601f8101871361220f57600080fd5b61221e8782356020840161201c565b91505092959194509250565b60006020828403121561223c57600080fd5b813567ffffffffffffffff81111561225357600080fd5b610ff484828501612074565b6000806040838503121561227257600080fd5b61227b83611f58565b915061228960208401611f58565b90509250929050565b600181811c908216806122a657607f821691505b602082108114156122c757634e487b7160e01b600052602260045260246000fd5b50919050565b634e487b7160e01b600052603260045260246000fd5b634e487b7160e01b600052601160045260246000fd5b600060001982141561230d5761230d6122e3565b5060010190565b600081600019048311821515161561232e5761232e6122e3565b500290565b634e487b7160e01b600052601260045260246000fd5b60008261235857612358612333565b500490565b60008282101561236f5761236f6122e3565b500390565b60008219821115612387576123876122e3565b500190565b6000835161239e818460208801611ed4565b8351908301906123b2818360208801611ed4565b01949350505050565b60006001600160a01b038087168352808616602084015250836040830152608060608301526123ed6080830184611f00565b9695505050505050565b60006020828403121561240957600080fd5b815161192c81611ea1565b60008261242357612423612333565b500690565b634e487b7160e01b600052603160045260246000fdfea264697066735822122053c99bef9dcdee8ea272fd4dbaab4dac95d92a48a6533ad333c64f4aeb37808764736f6c6343000808003368747470733a2f2f636267622e6d7970696e6174612e636c6f75642f697066732f516d5175656348726f4767544244384153357a6756724a7450643235787573325a48436566687653365539555048",
  "linkReferences": {},
  "deployedLinkReferences": {}
}