{
  "_format": "hh-sol-artifact-1",
  "contractName": "CoffeeWars",
  "sourceName": "contracts/NFT.sol",
  "abi": [
    {
      "inputs": [],
      "stateMutability": "nonpayable",
      "type": "constructor"
    },
    {
      "anonymous": false,
      "inputs": [
        {
          "indexed": true,
          "internalType": "address",
          "name": "owner",
          "type": "address"
        },
        {
          "indexed": true,
          "internalType": "address",
          "name": "approved",
          "type": "address"
        },
        {
          "indexed": true,
          "internalType": "uint256",
          "name": "tokenId",
          "type": "uint256"
        }
      ],
      "name": "Approval",
      "type": "event"
    },
    {
      "anonymous": false,
      "inputs": [
        {
          "indexed": true,
          "internalType": "address",
          "name": "owner",
          "type": "address"
        },
        {
          "indexed": true,
          "internalType": "address",
          "name": "operator",
          "type": "address"
        },
        {
          "indexed": false,
          "internalType": "bool",
          "name": "approved",
          "type": "bool"
        }
      ],
      "name": "ApprovalForAll",
      "type": "event"
    },
    {
      "anonymous": false,
      "inputs": [
        {
          "indexed": true,
          "internalType": "address",
          "name": "previousOwner",
          "type": "address"
        },
        {
          "indexed": true,
          "internalType": "address",
          "name": "newOwner",
          "type": "address"
        }
      ],
      "name": "OwnershipTransferred",
      "type": "event"
    },
    {
      "anonymous": false,
      "inputs": [
        {
          "indexed": true,
          "internalType": "address",
          "name": "from",
          "type": "address"
        },
        {
          "indexed": true,
          "internalType": "address",
          "name": "to",
          "type": "address"
        },
        {
          "indexed": true,
          "internalType": "uint256",
          "name": "tokenId",
          "type": "uint256"
        }
      ],
      "name": "Transfer",
      "type": "event"
    },
    {
      "inputs": [],
      "name": "_sendEther",
      "outputs": [],
      "stateMutability": "payable",
      "type": "function"
    },
    {
      "inputs": [
        {
          "internalType": "address",
          "name": "to",
          "type": "address"
        },
        {
          "internalType": "uint256",
          "name": "tokenId",
          "type": "uint256"
        }
      ],
      "name": "approve",
      "outputs": [],
      "stateMutability": "nonpayable",
      "type": "function"
    },
    {
      "inputs": [
        {
          "internalType": "address",
          "name": "owner",
          "type": "address"
        }
      ],
      "name": "balanceOf",
      "outputs": [
        {
          "internalType": "uint256",
          "name": "",
          "type": "uint256"
        }
      ],
      "stateMutability": "view",
      "type": "function"
    },
    {
      "inputs": [
        {
          "internalType": "string[]",
          "name": "metadataGroup",
          "type": "string[]"
        },
        {
          "internalType": "uint256",
          "name": "pass",
          "type": "uint256"
        }
      ],
      "name": "doubleMint",
      "outputs": [],
      "stateMutability": "payable",
      "type": "function"
    },
    {
      "inputs": [],
      "name": "drop_unlock_time",
      "outputs": [
        {
          "internalType": "uint256",
          "name": "",
          "type": "uint256"
        }
      ],
      "stateMutability": "view",
      "type": "function"
    },
    {
      "inputs": [
        {
          "internalType": "uint256",
          "name": "tokenId",
          "type": "uint256"
        }
      ],
      "name": "getApproved",
      "outputs": [
        {
          "internalType": "address",
          "name": "",
          "type": "address"
        }
      ],
      "stateMutability": "view",
      "type": "function"
    },
    {
      "inputs": [],
      "name": "getTime",
      "outputs": [
        {
          "internalType": "uint256",
          "name": "",
          "type": "uint256"
        }
      ],
      "stateMutability": "view",
      "type": "function"
    },
    {
      "inputs": [
        {
          "internalType": "address",
          "name": "owner",
          "type": "address"
        },
        {
          "internalType": "address",
          "name": "operator",
          "type": "address"
        }
      ],
      "name": "isApprovedForAll",
      "outputs": [
        {
          "internalType": "bool",
          "name": "",
          "type": "bool"
        }
      ],
      "stateMutability": "view",
      "type": "function"
    },
    {
      "inputs": [
        {
          "internalType": "string",
          "name": "_uri",
          "type": "string"
        },
        {
          "internalType": "uint256",
          "name": "pass",
          "type": "uint256"
        }
      ],
      "name": "mint",
      "outputs": [],
      "stateMutability": "payable",
      "type": "function"
    },
    {
      "inputs": [],
      "name": "name",
      "outputs": [
        {
          "internalType": "string",
          "name": "",
          "type": "string"
        }
      ],
      "stateMutability": "view",
      "type": "function"
    },
    {
      "inputs": [],
      "name": "owner",
      "outputs": [
        {
          "internalType": "address",
          "name": "",
          "type": "address"
        }
      ],
      "stateMutability": "view",
      "type": "function"
    },
    {
      "inputs": [
        {
          "internalType": "uint256",
          "name": "tokenId",
          "type": "uint256"
        }
      ],
      "name": "ownerOf",
      "outputs": [
        {
          "internalType": "address",
          "name": "",
          "type": "address"
        }
      ],
      "stateMutability": "view",
      "type": "function"
    },
    {
      "inputs": [],
      "name": "renounceOwnership",
      "outputs": [],
      "stateMutability": "nonpayable",
      "type": "function"
    },
    {
      "inputs": [
        {
          "internalType": "address",
          "name": "from",
          "type": "address"
        },
        {
          "internalType": "address",
          "name": "to",
          "type": "address"
        },
        {
          "internalType": "uint256",
          "name": "tokenId",
          "type": "uint256"
        }
      ],
      "name": "safeTransferFrom",
      "outputs": [],
      "stateMutability": "nonpayable",
      "type": "function"
    },
    {
      "inputs": [
        {
          "internalType": "address",
          "name": "from",
          "type": "address"
        },
        {
          "internalType": "address",
          "name": "to",
          "type": "address"
        },
        {
          "internalType": "uint256",
          "name": "tokenId",
          "type": "uint256"
        },
        {
          "internalType": "bytes",
          "name": "data",
          "type": "bytes"
        }
      ],
      "name": "safeTransferFrom",
      "outputs": [],
      "stateMutability": "nonpayable",
      "type": "function"
    },
    {
      "inputs": [
        {
          "internalType": "address",
          "name": "operator",
          "type": "address"
        },
        {
          "internalType": "bool",
          "name": "approved",
          "type": "bool"
        }
      ],
      "name": "setApprovalForAll",
      "outputs": [],
      "stateMutability": "nonpayable",
      "type": "function"
    },
    {
      "inputs": [
        {
          "internalType": "address[]",
          "name": "newWallets",
          "type": "address[]"
        },
        {
          "internalType": "uint8[]",
          "name": "percentages",
          "type": "uint8[]"
        }
      ],
      "name": "setDivisions",
      "outputs": [],
      "stateMutability": "nonpayable",
      "type": "function"
    },
    {
      "inputs": [
        {
          "internalType": "uint256",
          "name": "newUnlockTime",
          "type": "uint256"
        }
      ],
      "name": "setUnlockTime",
      "outputs": [],
      "stateMutability": "nonpayable",
      "type": "function"
    },
    {
      "inputs": [
        {
          "internalType": "string",
          "name": "newPreviwURL",
          "type": "string"
        }
      ],
      "name": "setUplockPreviw",
      "outputs": [],
      "stateMutability": "nonpayable",
      "type": "function"
    },
    {
      "inputs": [
        {
          "internalType": "bytes4",
          "name": "interfaceId",
          "type": "bytes4"
        }
      ],
      "name": "supportsInterface",
      "outputs": [
        {
          "internalType": "bool",
          "name": "",
          "type": "bool"
        }
      ],
      "stateMutability": "view",
      "type": "function"
    },
    {
      "inputs": [],
      "name": "symbol",
      "outputs": [
        {
          "internalType": "string",
          "name": "",
          "type": "string"
        }
      ],
      "stateMutability": "view",
      "type": "function"
    },
    {
      "inputs": [
        {
          "internalType": "uint256",
          "name": "index",
          "type": "uint256"
        }
      ],
      "name": "tokenByIndex",
      "outputs": [
        {
          "internalType": "uint256",
          "name": "",
          "type": "uint256"
        }
      ],
      "stateMutability": "view",
      "type": "function"
    },
    {
      "inputs": [
        {
          "internalType": "address",
          "name": "owner",
          "type": "address"
        },
        {
          "internalType": "uint256",
          "name": "index",
          "type": "uint256"
        }
      ],
      "name": "tokenOfOwnerByIndex",
      "outputs": [
        {
          "internalType": "uint256",
          "name": "",
          "type": "uint256"
        }
      ],
      "stateMutability": "view",
      "type": "function"
    },
    {
      "inputs": [
        {
          "internalType": "uint256",
          "name": "tokenId",
          "type": "uint256"
        }
      ],
      "name": "tokenURI",
      "outputs": [
        {
          "internalType": "string",
          "name": "",
          "type": "string"
        }
      ],
      "stateMutability": "view",
      "type": "function"
    },
    {
      "inputs": [],
      "name": "totalSupply",
      "outputs": [
        {
          "internalType": "uint256",
          "name": "",
          "type": "uint256"
        }
      ],
      "stateMutability": "view",
      "type": "function"
    },
    {
      "inputs": [
        {
          "internalType": "address",
          "name": "from",
          "type": "address"
        },
        {
          "internalType": "address",
          "name": "to",
          "type": "address"
        },
        {
          "internalType": "uint256",
          "name": "tokenId",
          "type": "uint256"
        }
      ],
      "name": "transferFrom",
      "outputs": [],
      "stateMutability": "nonpayable",
      "type": "function"
    },
    {
      "inputs": [
        {
          "internalType": "address",
          "name": "newOwner",
          "type": "address"
        }
      ],
      "name": "transferOwnership",
      "outputs": [],
      "stateMutability": "nonpayable",
      "type": "function"
    },
    {
      "inputs": [],
      "name": "unlock_preview",
      "outputs": [
        {
          "internalType": "string",
          "name": "",
          "type": "string"
        }
      ],
      "stateMutability": "view",
      "type": "function"
    },
    {
      "inputs": [
        {
          "internalType": "uint256",
          "name": "",
          "type": "uint256"
        }
      ],
      "name": "walletPercents",
      "outputs": [
        {
          "internalType": "uint8",
          "name": "",
          "type": "uint8"
        }
      ],
      "stateMutability": "view",
      "type": "function"
    },
    {
      "inputs": [
        {
          "internalType": "uint256",
          "name": "",
          "type": "uint256"
        }
      ],
      "name": "wallets",
      "outputs": [
        {
          "internalType": "address",
          "name": "",
          "type": "address"
        }
      ],
      "stateMutability": "view",
      "type": "function"
    }
  ],
  "bytecode": "0x6080604052636376cb00600c556040518060800160405280604f815260200162004bcd604f9139600d90805190602001906200003d92919062000601565b507f68cdeee1208537ad79fed676c8df717582e920bc63d6eed10399c433a850bc2660001b600e55604051806101800160405280603b60ff168152602001600a60ff168152602001600a60ff168152602001600560ff168152602001600260ff168152602001600260ff168152602001600260ff168152602001600260ff168152602001600260ff168152602001600260ff168152602001600260ff168152602001600260ff16815250600f90600c620000f992919062000692565b5060405180610180016040528073f74a589d778f6d1166dca66d0b17263403227e5573ffffffffffffffffffffffffffffffffffffffff1673ffffffffffffffffffffffffffffffffffffffff16815260200173653229a1c558b87cba440bb82d296bd1e572c23d73ffffffffffffffffffffffffffffffffffffffff1673ffffffffffffffffffffffffffffffffffffffff16815260200173fe78bf9d611c6aab734a69810e79e8220278c89773ffffffffffffffffffffffffffffffffffffffff1673ffffffffffffffffffffffffffffffffffffffff16815260200173ffe7afe2b1fa96045e91e566a903a230cbb99f7073ffffffffffffffffffffffffffffffffffffffff1673ffffffffffffffffffffffffffffffffffffffff168152602001731b86c2909c765ec3be7ad953e3bd6f3c748ee07b73ffffffffffffffffffffffffffffffffffffffff1673ffffffffffffffffffffffffffffffffffffffff16815260200173f74a589d778f6d1166dca66d0b17263403227e5573ffffffffffffffffffffffffffffffffffffffff1673ffffffffffffffffffffffffffffffffffffffff16815260200173f74a589d778f6d1166dca66d0b17263403227e5573ffffffffffffffffffffffffffffffffffffffff1673ffffffffffffffffffffffffffffffffffffffff16815260200173f74a589d778f6d1166dca66d0b17263403227e5573ffffffffffffffffffffffffffffffffffffffff1673ffffffffffffffffffffffffffffffffffffffff16815260200173f74a589d778f6d1166dca66d0b17263403227e5573ffffffffffffffffffffffffffffffffffffffff1673ffffffffffffffffffffffffffffffffffffffff16815260200173f74a589d778f6d1166dca66d0b17263403227e5573ffffffffffffffffffffffffffffffffffffffff1673ffffffffffffffffffffffffffffffffffffffff16815260200173f74a589d778f6d1166dca66d0b17263403227e5573ffffffffffffffffffffffffffffffffffffffff1673ffffffffffffffffffffffffffffffffffffffff16815260200173f74a589d778f6d1166dca66d0b17263403227e5573ffffffffffffffffffffffffffffffffffffffff1673ffffffffffffffffffffffffffffffffffffffff16815250601090600c6200045e92919062000740565b503480156200046c57600080fd5b506040518060400160405280600a81526020017f436f6666656557617273000000000000000000000000000000000000000000008152506040518060400160405280600281526020017f43570000000000000000000000000000000000000000000000000000000000008152508160009080519060200190620004f192919062000601565b5080600190805190602001906200050a92919062000601565b5050506200052d620005216200053360201b60201c565b6200053b60201b60201c565b62000853565b600033905090565b6000600b60009054906101000a900473ffffffffffffffffffffffffffffffffffffffff16905081600b60006101000a81548173ffffffffffffffffffffffffffffffffffffffff021916908373ffffffffffffffffffffffffffffffffffffffff1602179055508173ffffffffffffffffffffffffffffffffffffffff168173ffffffffffffffffffffffffffffffffffffffff167f8be0079c531659141344cd1fd0a4f28419497f9722a3daafe3b4186f6b6457e060405160405180910390a35050565b8280546200060f906200081d565b90600052602060002090601f0160209004810192826200063357600085556200067f565b82601f106200064e57805160ff19168380011785556200067f565b828001600101855582156200067f579182015b828111156200067e57825182559160200191906001019062000661565b5b5090506200068e9190620007cf565b5090565b82805482825590600052602060002090601f016020900481019282156200072d5791602002820160005b83821115620006fc57835183826101000a81548160ff021916908360ff1602179055509260200192600101602081600001049283019260010302620006bc565b80156200072b5782816101000a81549060ff0219169055600101602081600001049283019260010302620006fc565b505b5090506200073c9190620007cf565b5090565b828054828255906000526020600020908101928215620007bc579160200282015b82811115620007bb5782518260006101000a81548173ffffffffffffffffffffffffffffffffffffffff021916908373ffffffffffffffffffffffffffffffffffffffff1602179055509160200191906001019062000761565b5b509050620007cb9190620007cf565b5090565b5b80821115620007ea576000816000905550600101620007d0565b5090565b7f4e487b7100000000000000000000000000000000000000000000000000000000600052602260045260246000fd5b600060028204905060018216806200083657607f821691505b602082108114156200084d576200084c620007ee565b5b50919050565b61436a80620008636000396000f3fe6080604052600436106101cd5760003560e01c80636352211e116100f7578063a22cb46511610095578063c87b56dd11610064578063c87b56dd1461065f578063dace45571461069c578063e985e9c5146106c5578063f2fde38b14610702576101cd565b8063a22cb465146105c6578063a786bf3e146105ef578063b88d4fde1461062c578063bc069b9214610655576101cd565b80637ad71f72116100d15780637ad71f721461050a5780638da5cb5b1461054757806395d89b41146105725780639bc9a0a11461059d576101cd565b80636352211e1461047957806370a08231146104b6578063715018a6146104f3576101cd565b80631c534c9f1161016f57806342842e0e1161013e57806342842e0e146103bf578063495f645f146103e85780634f6ccce714610411578063557ed1ba1461044e576101cd565b80631c534c9f1461031257806323b872dd1461032e5780632e1b863f146103575780632f745c5914610382576101cd565b8063081812fc116101ab578063081812fc14610256578063095ea7b3146102935780631643918c146102bc57806318160ddd146102e7576101cd565b806301ffc9a7146101d2578063056b01ce1461020f57806306fdde031461022b575b600080fd5b3480156101de57600080fd5b506101f960048036038101906101f49190612af3565b61072b565b6040516102069190612b3b565b60405180910390f35b61022960048036038101906102249190612cd2565b61073d565b005b34801561023757600080fd5b506102406107b6565b60405161024d9190612db6565b60405180910390f35b34801561026257600080fd5b5061027d60048036038101906102789190612dd8565b610848565b60405161028a9190612e46565b60405180910390f35b34801561029f57600080fd5b506102ba60048036038101906102b59190612e8d565b61088e565b005b3480156102c857600080fd5b506102d16109a6565b6040516102de9190612db6565b60405180910390f35b3480156102f357600080fd5b506102fc610a34565b6040516103099190612edc565b60405180910390f35b61032c60048036038101906103279190612fdd565b610a41565b005b34801561033a57600080fd5b5061035560048036038101906103509190613039565b610af4565b005b34801561036357600080fd5b5061036c610b54565b6040516103799190612edc565b60405180910390f35b34801561038e57600080fd5b506103a960048036038101906103a49190612e8d565b610b5a565b6040516103b69190612edc565b60405180910390f35b3480156103cb57600080fd5b506103e660048036038101906103e19190613039565b610bff565b005b3480156103f457600080fd5b5061040f600480360381019061040a919061324b565b610c1f565b005b34801561041d57600080fd5b5061043860048036038101906104339190612dd8565b610c9d565b6040516104459190612edc565b60405180910390f35b34801561045a57600080fd5b50610463610d0e565b6040516104709190612edc565b60405180910390f35b34801561048557600080fd5b506104a0600480360381019061049b9190612dd8565b610d16565b6040516104ad9190612e46565b60405180910390f35b3480156104c257600080fd5b506104dd60048036038101906104d891906132c3565b610dc8565b6040516104ea9190612edc565b60405180910390f35b3480156104ff57600080fd5b50610508610e80565b005b34801561051657600080fd5b50610531600480360381019061052c9190612dd8565b610e94565b60405161053e9190612e46565b60405180910390f35b34801561055357600080fd5b5061055c610ed3565b6040516105699190612e46565b60405180910390f35b34801561057e57600080fd5b50610587610efd565b6040516105949190612db6565b60405180910390f35b3480156105a957600080fd5b506105c460048036038101906105bf91906132f0565b610f8f565b005b3480156105d257600080fd5b506105ed60048036038101906105e89190613365565b610fb1565b005b3480156105fb57600080fd5b5061061660048036038101906106119190612dd8565b610fc7565b60405161062391906133b4565b60405180910390f35b34801561063857600080fd5b50610653600480360381019061064e9190613470565b610ffb565b005b61065d61105d565b005b34801561066b57600080fd5b5061068660048036038101906106819190612dd8565b6111bb565b6040516106939190612db6565b60405180910390f35b3480156106a857600080fd5b506106c360048036038101906106be9190612dd8565b61126a565b005b3480156106d157600080fd5b506106ec60048036038101906106e791906134f3565b61127c565b6040516106f99190612b3b565b60405180910390f35b34801561070e57600080fd5b50610729600480360381019061072491906132c3565b611310565b005b600061073682611394565b9050919050565b600e546107498261140e565b14610789576040517f08c379a00000000000000000000000000000000000000000000000000000000081526004016107809061357f565b60405180910390fd5b6000610793610a34565b905061079f338261143e565b6107a9818461145c565b6107b161105d565b505050565b6060600080546107c5906135ce565b80601f01602080910402602001604051908101604052809291908181526020018280546107f1906135ce565b801561083e5780601f106108135761010080835404028352916020019161083e565b820191906000526020600020905b81548152906001019060200180831161082157829003601f168201915b5050505050905090565b6000610853826114d0565b6004600083815260200190815260200160002060009054906101000a900473ffffffffffffffffffffffffffffffffffffffff169050919050565b600061089982610d16565b90508073ffffffffffffffffffffffffffffffffffffffff168373ffffffffffffffffffffffffffffffffffffffff16141561090a576040517f08c379a000000000000000000000000000000000000000000000000000000000815260040161090190613672565b60405180910390fd5b8073ffffffffffffffffffffffffffffffffffffffff1661092961151b565b73ffffffffffffffffffffffffffffffffffffffff16148061095857506109578161095261151b565b61127c565b5b610997576040517f08c379a000000000000000000000000000000000000000000000000000000000815260040161098e90613704565b60405180910390fd5b6109a18383611523565b505050565b600d80546109b3906135ce565b80601f01602080910402602001604051908101604052809291908181526020018280546109df906135ce565b8015610a2c5780601f10610a0157610100808354040283529160200191610a2c565b820191906000526020600020905b815481529060010190602001808311610a0f57829003601f168201915b505050505081565b6000600880549050905090565b600e54610a4d8261140e565b14610a8d576040517f08c379a0000000000000000000000000000000000000000000000000000000008152600401610a849061357f565b60405180910390fd5b60005b8251811015610ae7576000610aa3610a34565b9050610aaf338261143e565b610ad381858481518110610ac657610ac5613724565b5b602002602001015161145c565b508080610adf90613782565b915050610a90565b50610af061105d565b5050565b610b05610aff61151b565b826115dc565b610b44576040517f08c379a0000000000000000000000000000000000000000000000000000000008152600401610b3b9061383d565b60405180910390fd5b610b4f838383611671565b505050565b600c5481565b6000610b6583610dc8565b8210610ba6576040517f08c379a0000000000000000000000000000000000000000000000000000000008152600401610b9d906138cf565b60405180910390fd5b600660008473ffffffffffffffffffffffffffffffffffffffff1673ffffffffffffffffffffffffffffffffffffffff168152602001908152602001600020600083815260200190815260200160002054905092915050565b610c1a83838360405180602001604052806000815250610ffb565b505050565b610c276118d8565b8051825114610c6b576040517f08c379a0000000000000000000000000000000000000000000000000000000008152600401610c6290613961565b60405180910390fd5b8160109080519060200190610c819291906128b3565b5080600f9080519060200190610c9892919061293d565b505050565b6000610ca7610a34565b8210610ce8576040517f08c379a0000000000000000000000000000000000000000000000000000000008152600401610cdf906139f3565b60405180910390fd5b60088281548110610cfc57610cfb613724565b5b90600052602060002001549050919050565b600042905090565b6000806002600084815260200190815260200160002060009054906101000a900473ffffffffffffffffffffffffffffffffffffffff169050600073ffffffffffffffffffffffffffffffffffffffff168173ffffffffffffffffffffffffffffffffffffffff161415610dbf576040517f08c379a0000000000000000000000000000000000000000000000000000000008152600401610db690613a5f565b60405180910390fd5b80915050919050565b60008073ffffffffffffffffffffffffffffffffffffffff168273ffffffffffffffffffffffffffffffffffffffff161415610e39576040517f08c379a0000000000000000000000000000000000000000000000000000000008152600401610e3090613af1565b60405180910390fd5b600360008373ffffffffffffffffffffffffffffffffffffffff1673ffffffffffffffffffffffffffffffffffffffff168152602001908152602001600020549050919050565b610e886118d8565b610e926000611956565b565b60108181548110610ea457600080fd5b906000526020600020016000915054906101000a900473ffffffffffffffffffffffffffffffffffffffff1681565b6000600b60009054906101000a900473ffffffffffffffffffffffffffffffffffffffff16905090565b606060018054610f0c906135ce565b80601f0160208091040260200160405190810160405280929190818152602001828054610f38906135ce565b8015610f855780601f10610f5a57610100808354040283529160200191610f85565b820191906000526020600020905b815481529060010190602001808311610f6857829003601f168201915b5050505050905090565b610f976118d8565b80600d9080519060200190610fad9291906129e4565b5050565b610fc3610fbc61151b565b8383611a1c565b5050565b600f8181548110610fd757600080fd5b9060005260206000209060209182820401919006915054906101000a900460ff1681565b61100c61100661151b565b836115dc565b61104b576040517f08c379a00000000000000000000000000000000000000000000000000000000081526004016110429061383d565b60405180910390fd5b61105784848484611b89565b50505050565b60005b6010805490508110156111b85760006010828154811061108357611082613724565b5b9060005260206000200160009054906101000a900473ffffffffffffffffffffffffffffffffffffffff1673ffffffffffffffffffffffffffffffffffffffff166064600f84815481106110da576110d9613724565b5b90600052602060002090602091828204019190069054906101000a900460ff1660ff16346111089190613b11565b6111129190613b9a565b60405161111e90613bfc565b60006040518083038185875af1925050503d806000811461115b576040519150601f19603f3d011682016040523d82523d6000602084013e611160565b606091505b50509050806111a4576040517f08c379a000000000000000000000000000000000000000000000000000000000815260040161119b90613c5d565b60405180910390fd5b5080806111b090613782565b915050611060565b50565b6060600c5442101561125957600d80546111d4906135ce565b80601f0160208091040260200160405190810160405280929190818152602001828054611200906135ce565b801561124d5780601f106112225761010080835404028352916020019161124d565b820191906000526020600020905b81548152906001019060200180831161123057829003601f168201915b50505050509050611265565b61126282611be5565b90505b919050565b6112726118d8565b80600c8190555050565b6000600560008473ffffffffffffffffffffffffffffffffffffffff1673ffffffffffffffffffffffffffffffffffffffff16815260200190815260200160002060008373ffffffffffffffffffffffffffffffffffffffff1673ffffffffffffffffffffffffffffffffffffffff16815260200190815260200160002060009054906101000a900460ff16905092915050565b6113186118d8565b600073ffffffffffffffffffffffffffffffffffffffff168173ffffffffffffffffffffffffffffffffffffffff161415611388576040517f08c379a000000000000000000000000000000000000000000000000000000000815260040161137f90613cef565b60405180910390fd5b61139181611956565b50565b60007f780e9d63000000000000000000000000000000000000000000000000000000007bffffffffffffffffffffffffffffffffffffffffffffffffffffffff1916827bffffffffffffffffffffffffffffffffffffffffffffffffffffffff19161480611407575061140682611cf8565b5b9050919050565b6000816040516020016114219190612edc565b604051602081830303815290604052805190602001209050919050565b611458828260405180602001604052806000815250611dda565b5050565b61146582611e35565b6114a4576040517f08c379a000000000000000000000000000000000000000000000000000000000815260040161149b90613d81565b60405180910390fd5b80600a600084815260200190815260200160002090805190602001906114cb9291906129e4565b505050565b6114d981611e35565b611518576040517f08c379a000000000000000000000000000000000000000000000000000000000815260040161150f90613a5f565b60405180910390fd5b50565b600033905090565b816004600083815260200190815260200160002060006101000a81548173ffffffffffffffffffffffffffffffffffffffff021916908373ffffffffffffffffffffffffffffffffffffffff160217905550808273ffffffffffffffffffffffffffffffffffffffff1661159683610d16565b73ffffffffffffffffffffffffffffffffffffffff167f8c5be1e5ebec7d5bd14f71427d1e84f3dd0314c0f7b2291e5b200ac8c7c3b92560405160405180910390a45050565b6000806115e883610d16565b90508073ffffffffffffffffffffffffffffffffffffffff168473ffffffffffffffffffffffffffffffffffffffff16148061162a5750611629818561127c565b5b8061166857508373ffffffffffffffffffffffffffffffffffffffff1661165084610848565b73ffffffffffffffffffffffffffffffffffffffff16145b91505092915050565b8273ffffffffffffffffffffffffffffffffffffffff1661169182610d16565b73ffffffffffffffffffffffffffffffffffffffff16146116e7576040517f08c379a00000000000000000000000000000000000000000000000000000000081526004016116de90613e13565b60405180910390fd5b600073ffffffffffffffffffffffffffffffffffffffff168273ffffffffffffffffffffffffffffffffffffffff161415611757576040517f08c379a000000000000000000000000000000000000000000000000000000000815260040161174e90613ea5565b60405180910390fd5b611762838383611ea1565b61176d600082611523565b6001600360008573ffffffffffffffffffffffffffffffffffffffff1673ffffffffffffffffffffffffffffffffffffffff16815260200190815260200160002060008282546117bd9190613ec5565b925050819055506001600360008473ffffffffffffffffffffffffffffffffffffffff1673ffffffffffffffffffffffffffffffffffffffff16815260200190815260200160002060008282546118149190613ef9565b92505081905550816002600083815260200190815260200160002060006101000a81548173ffffffffffffffffffffffffffffffffffffffff021916908373ffffffffffffffffffffffffffffffffffffffff160217905550808273ffffffffffffffffffffffffffffffffffffffff168473ffffffffffffffffffffffffffffffffffffffff167fddf252ad1be2c89b69c2b068fc378daa952ba7f163c4a11628f55a4df523b3ef60405160405180910390a46118d3838383611eb1565b505050565b6118e061151b565b73ffffffffffffffffffffffffffffffffffffffff166118fe610ed3565b73ffffffffffffffffffffffffffffffffffffffff1614611954576040517f08c379a000000000000000000000000000000000000000000000000000000000815260040161194b90613f9b565b60405180910390fd5b565b6000600b60009054906101000a900473ffffffffffffffffffffffffffffffffffffffff16905081600b60006101000a81548173ffffffffffffffffffffffffffffffffffffffff021916908373ffffffffffffffffffffffffffffffffffffffff1602179055508173ffffffffffffffffffffffffffffffffffffffff168173ffffffffffffffffffffffffffffffffffffffff167f8be0079c531659141344cd1fd0a4f28419497f9722a3daafe3b4186f6b6457e060405160405180910390a35050565b8173ffffffffffffffffffffffffffffffffffffffff168373ffffffffffffffffffffffffffffffffffffffff161415611a8b576040517f08c379a0000000000000000000000000000000000000000000000000000000008152600401611a8290614007565b60405180910390fd5b80600560008573ffffffffffffffffffffffffffffffffffffffff1673ffffffffffffffffffffffffffffffffffffffff16815260200190815260200160002060008473ffffffffffffffffffffffffffffffffffffffff1673ffffffffffffffffffffffffffffffffffffffff16815260200190815260200160002060006101000a81548160ff0219169083151502179055508173ffffffffffffffffffffffffffffffffffffffff168373ffffffffffffffffffffffffffffffffffffffff167f17307eab39ab6107e8899845ad3d59bd9653f200f220920489ca2b5937696c3183604051611b7c9190612b3b565b60405180910390a3505050565b611b94848484611671565b611ba084848484611eb6565b611bdf576040517f08c379a0000000000000000000000000000000000000000000000000000000008152600401611bd690614099565b60405180910390fd5b50505050565b6060611bf0826114d0565b6000600a60008481526020019081526020016000208054611c10906135ce565b80601f0160208091040260200160405190810160405280929190818152602001828054611c3c906135ce565b8015611c895780601f10611c5e57610100808354040283529160200191611c89565b820191906000526020600020905b815481529060010190602001808311611c6c57829003601f168201915b505050505090506000611c9a61204d565b9050600081511415611cb0578192505050611cf3565b600082511115611ce5578082604051602001611ccd9291906140f5565b60405160208183030381529060405292505050611cf3565b611cee84612064565b925050505b919050565b60007f80ac58cd000000000000000000000000000000000000000000000000000000007bffffffffffffffffffffffffffffffffffffffffffffffffffffffff1916827bffffffffffffffffffffffffffffffffffffffffffffffffffffffff19161480611dc357507f5b5e139f000000000000000000000000000000000000000000000000000000007bffffffffffffffffffffffffffffffffffffffffffffffffffffffff1916827bffffffffffffffffffffffffffffffffffffffffffffffffffffffff1916145b80611dd35750611dd2826120cc565b5b9050919050565b611de48383612136565b611df16000848484611eb6565b611e30576040517f08c379a0000000000000000000000000000000000000000000000000000000008152600401611e2790614099565b60405180910390fd5b505050565b60008073ffffffffffffffffffffffffffffffffffffffff166002600084815260200190815260200160002060009054906101000a900473ffffffffffffffffffffffffffffffffffffffff1673ffffffffffffffffffffffffffffffffffffffff1614159050919050565b611eac838383612310565b505050565b505050565b6000611ed78473ffffffffffffffffffffffffffffffffffffffff16612424565b15612040578373ffffffffffffffffffffffffffffffffffffffff1663150b7a02611f0061151b565b8786866040518563ffffffff1660e01b8152600401611f22949392919061416e565b602060405180830381600087803b158015611f3c57600080fd5b505af1925050508015611f6d57506040513d601f19601f82011682018060405250810190611f6a91906141cf565b60015b611ff0573d8060008114611f9d576040519150601f19603f3d011682016040523d82523d6000602084013e611fa2565b606091505b50600081511415611fe8576040517f08c379a0000000000000000000000000000000000000000000000000000000008152600401611fdf90614099565b60405180910390fd5b805181602001fd5b63150b7a0260e01b7bffffffffffffffffffffffffffffffffffffffffffffffffffffffff1916817bffffffffffffffffffffffffffffffffffffffffffffffffffffffff191614915050612045565b600190505b949350505050565b606060405180602001604052806000815250905090565b606061206f826114d0565b600061207961204d565b9050600081511161209957604051806020016040528060008152506120c4565b806120a384612447565b6040516020016120b49291906140f5565b6040516020818303038152906040525b915050919050565b60007f01ffc9a7000000000000000000000000000000000000000000000000000000007bffffffffffffffffffffffffffffffffffffffffffffffffffffffff1916827bffffffffffffffffffffffffffffffffffffffffffffffffffffffff1916149050919050565b600073ffffffffffffffffffffffffffffffffffffffff168273ffffffffffffffffffffffffffffffffffffffff1614156121a6576040517f08c379a000000000000000000000000000000000000000000000000000000000815260040161219d90614248565b60405180910390fd5b6121af81611e35565b156121ef576040517f08c379a00000000000000000000000000000000000000000000000000000000081526004016121e6906142b4565b60405180910390fd5b6121fb60008383611ea1565b6001600360008473ffffffffffffffffffffffffffffffffffffffff1673ffffffffffffffffffffffffffffffffffffffff168152602001908152602001600020600082825461224b9190613ef9565b92505081905550816002600083815260200190815260200160002060006101000a81548173ffffffffffffffffffffffffffffffffffffffff021916908373ffffffffffffffffffffffffffffffffffffffff160217905550808273ffffffffffffffffffffffffffffffffffffffff16600073ffffffffffffffffffffffffffffffffffffffff167fddf252ad1be2c89b69c2b068fc378daa952ba7f163c4a11628f55a4df523b3ef60405160405180910390a461230c60008383611eb1565b5050565b61231b8383836125a8565b600073ffffffffffffffffffffffffffffffffffffffff168373ffffffffffffffffffffffffffffffffffffffff16141561235e57612359816125ad565b61239d565b8173ffffffffffffffffffffffffffffffffffffffff168373ffffffffffffffffffffffffffffffffffffffff161461239c5761239b83826125f6565b5b5b600073ffffffffffffffffffffffffffffffffffffffff168273ffffffffffffffffffffffffffffffffffffffff1614156123e0576123db81612763565b61241f565b8273ffffffffffffffffffffffffffffffffffffffff168273ffffffffffffffffffffffffffffffffffffffff161461241e5761241d8282612834565b5b5b505050565b6000808273ffffffffffffffffffffffffffffffffffffffff163b119050919050565b6060600082141561248f576040518060400160405280600181526020017f300000000000000000000000000000000000000000000000000000000000000081525090506125a3565b600082905060005b600082146124c15780806124aa90613782565b915050600a826124ba9190613b9a565b9150612497565b60008167ffffffffffffffff8111156124dd576124dc612b71565b5b6040519080825280601f01601f19166020018201604052801561250f5781602001600182028036833780820191505090505b5090505b6000851461259c576001826125289190613ec5565b9150600a8561253791906142d4565b60306125439190613ef9565b60f81b81838151811061255957612558613724565b5b60200101907effffffffffffffffffffffffffffffffffffffffffffffffffffffffffffff1916908160001a905350600a856125959190613b9a565b9450612513565b8093505050505b919050565b505050565b6008805490506009600083815260200190815260200160002081905550600881908060018154018082558091505060019003906000526020600020016000909190919091505550565b6000600161260384610dc8565b61260d9190613ec5565b90506000600760008481526020019081526020016000205490508181146126f2576000600660008673ffffffffffffffffffffffffffffffffffffffff1673ffffffffffffffffffffffffffffffffffffffff168152602001908152602001600020600084815260200190815260200160002054905080600660008773ffffffffffffffffffffffffffffffffffffffff1673ffffffffffffffffffffffffffffffffffffffff168152602001908152602001600020600084815260200190815260200160002081905550816007600083815260200190815260200160002081905550505b6007600084815260200190815260200160002060009055600660008573ffffffffffffffffffffffffffffffffffffffff1673ffffffffffffffffffffffffffffffffffffffff16815260200190815260200160002060008381526020019081526020016000206000905550505050565b600060016008805490506127779190613ec5565b90506000600960008481526020019081526020016000205490506000600883815481106127a7576127a6613724565b5b9060005260206000200154905080600883815481106127c9576127c8613724565b5b90600052602060002001819055508160096000838152602001908152602001600020819055506009600085815260200190815260200160002060009055600880548061281857612817614305565b5b6001900381819060005260206000200160009055905550505050565b600061283f83610dc8565b905081600660008573ffffffffffffffffffffffffffffffffffffffff1673ffffffffffffffffffffffffffffffffffffffff168152602001908152602001600020600083815260200190815260200160002081905550806007600084815260200190815260200160002081905550505050565b82805482825590600052602060002090810192821561292c579160200282015b8281111561292b5782518260006101000a81548173ffffffffffffffffffffffffffffffffffffffff021916908373ffffffffffffffffffffffffffffffffffffffff160217905550916020019190600101906128d3565b5b5090506129399190612a6a565b5090565b82805482825590600052602060002090601f016020900481019282156129d35791602002820160005b838211156129a457835183826101000a81548160ff021916908360ff1602179055509260200192600101602081600001049283019260010302612966565b80156129d15782816101000a81549060ff02191690556001016020816000010492830192600103026129a4565b505b5090506129e09190612a6a565b5090565b8280546129f0906135ce565b90600052602060002090601f016020900481019282612a125760008555612a59565b82601f10612a2b57805160ff1916838001178555612a59565b82800160010185558215612a59579182015b82811115612a58578251825591602001919060010190612a3d565b5b509050612a669190612a6a565b5090565b5b80821115612a83576000816000905550600101612a6b565b5090565b6000604051905090565b600080fd5b600080fd5b60007fffffffff0000000000000000000000000000000000000000000000000000000082169050919050565b612ad081612a9b565b8114612adb57600080fd5b50565b600081359050612aed81612ac7565b92915050565b600060208284031215612b0957612b08612a91565b5b6000612b1784828501612ade565b91505092915050565b60008115159050919050565b612b3581612b20565b82525050565b6000602082019050612b506000830184612b2c565b92915050565b600080fd5b600080fd5b6000601f19601f8301169050919050565b7f4e487b7100000000000000000000000000000000000000000000000000000000600052604160045260246000fd5b612ba982612b60565b810181811067ffffffffffffffff82111715612bc857612bc7612b71565b5b80604052505050565b6000612bdb612a87565b9050612be78282612ba0565b919050565b600067ffffffffffffffff821115612c0757612c06612b71565b5b612c1082612b60565b9050602081019050919050565b82818337600083830152505050565b6000612c3f612c3a84612bec565b612bd1565b905082815260208101848484011115612c5b57612c5a612b5b565b5b612c66848285612c1d565b509392505050565b600082601f830112612c8357612c82612b56565b5b8135612c93848260208601612c2c565b91505092915050565b6000819050919050565b612caf81612c9c565b8114612cba57600080fd5b50565b600081359050612ccc81612ca6565b92915050565b60008060408385031215612ce957612ce8612a91565b5b600083013567ffffffffffffffff811115612d0757612d06612a96565b5b612d1385828601612c6e565b9250506020612d2485828601612cbd565b9150509250929050565b600081519050919050565b600082825260208201905092915050565b60005b83811015612d68578082015181840152602081019050612d4d565b83811115612d77576000848401525b50505050565b6000612d8882612d2e565b612d928185612d39565b9350612da2818560208601612d4a565b612dab81612b60565b840191505092915050565b60006020820190508181036000830152612dd08184612d7d565b905092915050565b600060208284031215612dee57612ded612a91565b5b6000612dfc84828501612cbd565b91505092915050565b600073ffffffffffffffffffffffffffffffffffffffff82169050919050565b6000612e3082612e05565b9050919050565b612e4081612e25565b82525050565b6000602082019050612e5b6000830184612e37565b92915050565b612e6a81612e25565b8114612e7557600080fd5b50565b600081359050612e8781612e61565b92915050565b60008060408385031215612ea457612ea3612a91565b5b6000612eb285828601612e78565b9250506020612ec385828601612cbd565b9150509250929050565b612ed681612c9c565b82525050565b6000602082019050612ef16000830184612ecd565b92915050565b600067ffffffffffffffff821115612f1257612f11612b71565b5b602082029050602081019050919050565b600080fd5b6000612f3b612f3684612ef7565b612bd1565b90508083825260208201905060208402830185811115612f5e57612f5d612f23565b5b835b81811015612fa557803567ffffffffffffffff811115612f8357612f82612b56565b5b808601612f908982612c6e565b85526020850194505050602081019050612f60565b5050509392505050565b600082601f830112612fc457612fc3612b56565b5b8135612fd4848260208601612f28565b91505092915050565b60008060408385031215612ff457612ff3612a91565b5b600083013567ffffffffffffffff81111561301257613011612a96565b5b61301e85828601612faf565b925050602061302f85828601612cbd565b9150509250929050565b60008060006060848603121561305257613051612a91565b5b600061306086828701612e78565b935050602061307186828701612e78565b925050604061308286828701612cbd565b9150509250925092565b600067ffffffffffffffff8211156130a7576130a6612b71565b5b602082029050602081019050919050565b60006130cb6130c68461308c565b612bd1565b905080838252602082019050602084028301858111156130ee576130ed612f23565b5b835b8181101561311757806131038882612e78565b8452602084019350506020810190506130f0565b5050509392505050565b600082601f83011261313657613135612b56565b5b81356131468482602086016130b8565b91505092915050565b600067ffffffffffffffff82111561316a57613169612b71565b5b602082029050602081019050919050565b600060ff82169050919050565b6131918161317b565b811461319c57600080fd5b50565b6000813590506131ae81613188565b92915050565b60006131c76131c28461314f565b612bd1565b905080838252602082019050602084028301858111156131ea576131e9612f23565b5b835b8181101561321357806131ff888261319f565b8452602084019350506020810190506131ec565b5050509392505050565b600082601f83011261323257613231612b56565b5b81356132428482602086016131b4565b91505092915050565b6000806040838503121561326257613261612a91565b5b600083013567ffffffffffffffff8111156132805761327f612a96565b5b61328c85828601613121565b925050602083013567ffffffffffffffff8111156132ad576132ac612a96565b5b6132b98582860161321d565b9150509250929050565b6000602082840312156132d9576132d8612a91565b5b60006132e784828501612e78565b91505092915050565b60006020828403121561330657613305612a91565b5b600082013567ffffffffffffffff81111561332457613323612a96565b5b61333084828501612c6e565b91505092915050565b61334281612b20565b811461334d57600080fd5b50565b60008135905061335f81613339565b92915050565b6000806040838503121561337c5761337b612a91565b5b600061338a85828601612e78565b925050602061339b85828601613350565b9150509250929050565b6133ae8161317b565b82525050565b60006020820190506133c960008301846133a5565b92915050565b600067ffffffffffffffff8211156133ea576133e9612b71565b5b6133f382612b60565b9050602081019050919050565b600061341361340e846133cf565b612bd1565b90508281526020810184848401111561342f5761342e612b5b565b5b61343a848285612c1d565b509392505050565b600082601f83011261345757613456612b56565b5b8135613467848260208601613400565b91505092915050565b6000806000806080858703121561348a57613489612a91565b5b600061349887828801612e78565b94505060206134a987828801612e78565b93505060406134ba87828801612cbd565b925050606085013567ffffffffffffffff8111156134db576134da612a96565b5b6134e787828801613442565b91505092959194509250565b6000806040838503121561350a57613509612a91565b5b600061351885828601612e78565b925050602061352985828601612e78565b9150509250929050565b7f70617373776f72642069732077726f6e67000000000000000000000000000000600082015250565b6000613569601183612d39565b915061357482613533565b602082019050919050565b600060208201905081810360008301526135988161355c565b9050919050565b7f4e487b7100000000000000000000000000000000000000000000000000000000600052602260045260246000fd5b600060028204905060018216806135e657607f821691505b602082108114156135fa576135f961359f565b5b50919050565b7f4552433732313a20617070726f76616c20746f2063757272656e74206f776e6560008201527f7200000000000000000000000000000000000000000000000000000000000000602082015250565b600061365c602183612d39565b915061366782613600565b604082019050919050565b6000602082019050818103600083015261368b8161364f565b9050919050565b7f4552433732313a20617070726f76652063616c6c6572206973206e6f7420746f60008201527f6b656e206f776e6572206e6f7220617070726f76656420666f7220616c6c0000602082015250565b60006136ee603e83612d39565b91506136f982613692565b604082019050919050565b6000602082019050818103600083015261371d816136e1565b9050919050565b7f4e487b7100000000000000000000000000000000000000000000000000000000600052603260045260246000fd5b7f4e487b7100000000000000000000000000000000000000000000000000000000600052601160045260246000fd5b600061378d82612c9c565b91507fffffffffffffffffffffffffffffffffffffffffffffffffffffffffffffffff8214156137c0576137bf613753565b5b600182019050919050565b7f4552433732313a2063616c6c6572206973206e6f7420746f6b656e206f776e6560008201527f72206e6f7220617070726f766564000000000000000000000000000000000000602082015250565b6000613827602e83612d39565b9150613832826137cb565b604082019050919050565b600060208201905081810360008301526138568161381a565b9050919050565b7f455243373231456e756d657261626c653a206f776e657220696e646578206f7560008201527f74206f6620626f756e6473000000000000000000000000000000000000000000602082015250565b60006138b9602b83612d39565b91506138c48261385d565b604082019050919050565b600060208201905081810360008301526138e8816138ac565b9050919050565b7f77616c6c65747320616e642070657263656e7461676573206c656e746820736860008201527f6f756c642062652073616d650000000000000000000000000000000000000000602082015250565b600061394b602c83612d39565b9150613956826138ef565b604082019050919050565b6000602082019050818103600083015261397a8161393e565b9050919050565b7f455243373231456e756d657261626c653a20676c6f62616c20696e646578206f60008201527f7574206f6620626f756e64730000000000000000000000000000000000000000602082015250565b60006139dd602c83612d39565b91506139e882613981565b604082019050919050565b60006020820190508181036000830152613a0c816139d0565b9050919050565b7f4552433732313a20696e76616c696420746f6b656e2049440000000000000000600082015250565b6000613a49601883612d39565b9150613a5482613a13565b602082019050919050565b60006020820190508181036000830152613a7881613a3c565b9050919050565b7f4552433732313a2061646472657373207a65726f206973206e6f74206120766160008201527f6c6964206f776e65720000000000000000000000000000000000000000000000602082015250565b6000613adb602983612d39565b9150613ae682613a7f565b604082019050919050565b60006020820190508181036000830152613b0a81613ace565b9050919050565b6000613b1c82612c9c565b9150613b2783612c9c565b9250817fffffffffffffffffffffffffffffffffffffffffffffffffffffffffffffffff0483118215151615613b6057613b5f613753565b5b828202905092915050565b7f4e487b7100000000000000000000000000000000000000000000000000000000600052601260045260246000fd5b6000613ba582612c9c565b9150613bb083612c9c565b925082613bc057613bbf613b6b565b5b828204905092915050565b600081905092915050565b50565b6000613be6600083613bcb565b9150613bf182613bd6565b600082019050919050565b6000613c0782613bd9565b9150819050919050565b7f7472616e73666572206661696c65640000000000000000000000000000000000600082015250565b6000613c47600f83612d39565b9150613c5282613c11565b602082019050919050565b60006020820190508181036000830152613c7681613c3a565b9050919050565b7f4f776e61626c653a206e6577206f776e657220697320746865207a65726f206160008201527f6464726573730000000000000000000000000000000000000000000000000000602082015250565b6000613cd9602683612d39565b9150613ce482613c7d565b604082019050919050565b60006020820190508181036000830152613d0881613ccc565b9050919050565b7f45524337323155524953746f726167653a2055524920736574206f66206e6f6e60008201527f6578697374656e7420746f6b656e000000000000000000000000000000000000602082015250565b6000613d6b602e83612d39565b9150613d7682613d0f565b604082019050919050565b60006020820190508181036000830152613d9a81613d5e565b9050919050565b7f4552433732313a207472616e736665722066726f6d20696e636f72726563742060008201527f6f776e6572000000000000000000000000000000000000000000000000000000602082015250565b6000613dfd602583612d39565b9150613e0882613da1565b604082019050919050565b60006020820190508181036000830152613e2c81613df0565b9050919050565b7f4552433732313a207472616e7366657220746f20746865207a65726f2061646460008201527f7265737300000000000000000000000000000000000000000000000000000000602082015250565b6000613e8f602483612d39565b9150613e9a82613e33565b604082019050919050565b60006020820190508181036000830152613ebe81613e82565b9050919050565b6000613ed082612c9c565b9150613edb83612c9c565b925082821015613eee57613eed613753565b5b828203905092915050565b6000613f0482612c9c565b9150613f0f83612c9c565b9250827fffffffffffffffffffffffffffffffffffffffffffffffffffffffffffffffff03821115613f4457613f43613753565b5b828201905092915050565b7f4f776e61626c653a2063616c6c6572206973206e6f7420746865206f776e6572600082015250565b6000613f85602083612d39565b9150613f9082613f4f565b602082019050919050565b60006020820190508181036000830152613fb481613f78565b9050919050565b7f4552433732313a20617070726f766520746f2063616c6c657200000000000000600082015250565b6000613ff1601983612d39565b9150613ffc82613fbb565b602082019050919050565b6000602082019050818103600083015261402081613fe4565b9050919050565b7f4552433732313a207472616e7366657220746f206e6f6e20455243373231526560008201527f63656976657220696d706c656d656e7465720000000000000000000000000000602082015250565b6000614083603283612d39565b915061408e82614027565b604082019050919050565b600060208201905081810360008301526140b281614076565b9050919050565b600081905092915050565b60006140cf82612d2e565b6140d981856140b9565b93506140e9818560208601612d4a565b80840191505092915050565b600061410182856140c4565b915061410d82846140c4565b91508190509392505050565b600081519050919050565b600082825260208201905092915050565b600061414082614119565b61414a8185614124565b935061415a818560208601612d4a565b61416381612b60565b840191505092915050565b60006080820190506141836000830187612e37565b6141906020830186612e37565b61419d6040830185612ecd565b81810360608301526141af8184614135565b905095945050505050565b6000815190506141c981612ac7565b92915050565b6000602082840312156141e5576141e4612a91565b5b60006141f3848285016141ba565b91505092915050565b7f4552433732313a206d696e7420746f20746865207a65726f2061646472657373600082015250565b6000614232602083612d39565b915061423d826141fc565b602082019050919050565b6000602082019050818103600083015261426181614225565b9050919050565b7f4552433732313a20746f6b656e20616c7265616479206d696e74656400000000600082015250565b600061429e601c83612d39565b91506142a982614268565b602082019050919050565b600060208201905081810360008301526142cd81614291565b9050919050565b60006142df82612c9c565b91506142ea83612c9c565b9250826142fa576142f9613b6b565b5b828206905092915050565b7f4e487b7100000000000000000000000000000000000000000000000000000000600052603160045260246000fdfea26469706673582212209e300694a3a177956b960b27c31c410f22396e23eeb492c0b90c30e8b490b6b964736f6c6343000808003368747470733a2f2f636267622e6d7970696e6174612e636c6f75642f697066732f516d5175656348726f4767544244384153357a6756724a7450643235787573325a48436566687653365539555048",
  "linkReferences": {},
  "deployedLinkReferences": {}
}